{"abi":[{"type":"constructor","inputs":[{"name":"_originChainId","type":"uint256","internalType":"uint256"},{"name":"_hook","type":"address","internalType":"address"},{"name":"_destinationChainId","type":"uint256","internalType":"uint256"},{"name":"_callbackProxy","type":"address","internalType":"address"}],"stateMutability":"payable"},{"type":"receive","stateMutability":"payable"},{"type":"function","name":"coverDebt","inputs":[],"outputs":[],"stateMutability":"nonpayable"},{"type":"function","name":"pay","inputs":[{"name":"amount","type":"uint256","internalType":"uint256"}],"outputs":[],"stateMutability":"nonpayable"},{"type":"function","name":"react","inputs":[{"name":"log","type":"tuple","internalType":"struct IReactive.LogRecord","components":[{"name":"chain_id","type":"uint256","internalType":"uint256"},{"name":"_contract","type":"address","internalType":"address"},{"name":"topic_0","type":"uint256","internalType":"uint256"},{"name":"topic_1","type":"uint256","internalType":"uint256"},{"name":"topic_2","type":"uint256","internalType":"uint256"},{"name":"topic_3","type":"uint256","internalType":"uint256"},{"name":"data","type":"bytes","internalType":"bytes"},{"name":"block_number","type":"uint256","internalType":"uint256"},{"name":"op_code","type":"uint256","internalType":"uint256"},{"name":"block_hash","type":"uint256","internalType":"uint256"},{"name":"tx_hash","type":"uint256","internalType":"uint256"},{"name":"log_index","type":"uint256","internalType":"uint256"}]}],"outputs":[],"stateMutability":"nonpayable"},{"type":"event","name":"Callback","inputs":[{"name":"chain_id","type":"uint256","indexed":true,"internalType":"uint256"},{"name":"_contract","type":"address","indexed":true,"internalType":"address"},{"name":"gas_limit","type":"uint64","indexed":true,"internalType":"uint64"},{"name":"payload","type":"bytes","indexed":false,"internalType":"bytes"}],"anonymous":false}],"bytecode":{"object":"0x610100806040526080816108ee803803809161001b82856101d6565b8339810103126101d25780516100336020830161020d565b9161004560606040830151920161020d565b600280545f80546001600160a01b03191662ffffff908117825590819052600160208190527f82ea04094b91fdbcc6bc700815069948943553fb456ac308389bf83006127735805460ff191690911790553b1560ff166001600160a81b0319909116811763ffffff001791829055608085905260c086905260a09390935260e0919091529015610107575b6040516106ac908161022282396080518161024d015260a0518161036c015260c05181818161032301526103fe015260e051815050f35b60081c6001600160a01b031691823b156101d25760c45f928360405195869485936305a6aced60e41b8552600485015260018060a01b031660248401527f4d6ce1e535dbade1c23defba91e23b8f791ce5edc0cc320dae6d0e6054b9e8b460448401525f805160206108ce83398151915260648401525f805160206108ce83398151915260848401525f805160206108ce83398151915260a48401525af180156101c7576101b7575b80806100d0565b5f6101c1916101d6565b5f6101b0565b6040513d5f823e3d90fd5b5f80fd5b601f909101601f19168101906001600160401b038211908210176101f957604052565b634e487b7160e01b5f52604160045260245ffd5b51906001600160a01b03821682036101d25756fe608080604052600436101561001c575b50361561001a575f80fd5b005b5f3560e01c9081630d152c2c146101d0575080637a90b990146100fb5763c290d69114610049575f61000f565b346100f75760207ffffffffffffffffffffffffffffffffffffffffffffffffffffffffffffffffc3601126100f757335f52600160205260ff60405f205416156100995761001a600435336104ee565b60646040517f08c379a000000000000000000000000000000000000000000000000000000000815260206004820152601660248201527f417574686f72697a65642073656e646572206f6e6c79000000000000000000006044820152fd5b5f80fd5b346100f7575f7ffffffffffffffffffffffffffffffffffffffffffffffffffffffffffffffffc3601126100f75773ffffffffffffffffffffffffffffffffffffffff5f5416604051907f9b6c56ec000000000000000000000000000000000000000000000000000000008252306004830152602082602481845afa9081156101c5575f9161018f575b61001a92506104ee565b90506020823d6020116101bd575b816101aa60209383610480565b810103126100f75761001a915190610185565b3d915061019d565b6040513d5f823e3d90fd5b346100f75760207ffffffffffffffffffffffffffffffffffffffffffffffffffffffffffffffffc3601126100f7576004359067ffffffffffffffff82116100f7576101807ffffffffffffffffffffffffffffffffffffffffffffffffffffffffffffffffc83360301126100f75760ff600254161561042457507f0000000000000000000000000000000000000000000000000000000000000000816004013514806103c3575b80610396575b61028457005b6207a1209060405190606460208301917fd088a77300000000000000000000000000000000000000000000000000000000835201356024830152602482526102cd604483610480565b6040519160208352518091816020850152604084015e5f604082840101527f8dd725fa9d6cd150017ab9e60318d40616439424e2fade9c1c58854950917dfc73ffffffffffffffffffffffffffffffffffffffff7f000000000000000000000000000000000000000000000000000000000000000016926040817fffffffffffffffffffffffffffffffffffffffffffffffffffffffffffffffe0601f7f00000000000000000000000000000000000000000000000000000000000000009601168101030190a4005b507f4d6ce1e535dbade1c23defba91e23b8f791ce5edc0cc320dae6d0e6054b9e8b460448201351461027e565b50602481013573ffffffffffffffffffffffffffffffffffffffff81168091036100f75773ffffffffffffffffffffffffffffffffffffffff7f00000000000000000000000000000000000000000000000000000000000000001614610278565b807f08c379a0000000000000000000000000000000000000000000000000000000006064925260206004820152600760248201527f564d206f6e6c79000000000000000000000000000000000000000000000000006044820152fd5b90601f7fffffffffffffffffffffffffffffffffffffffffffffffffffffffffffffffe0910116810190811067ffffffffffffffff8211176104c157604052565b7f4e487b71000000000000000000000000000000000000000000000000000000005f52604160045260245ffd5b81471061061857816104fe575050565b5f8091602093604051906105128683610480565b83825273ffffffffffffffffffffffffffffffffffffffff868301927fffffffffffffffffffffffffffffffffffffffffffffffffffffffffffffffe088013685375193165af13d15610613573d67ffffffffffffffff81116104c157604051906105a4601f82017fffffffffffffffffffffffffffffffffffffffffffffffffffffffffffffffe016850183610480565b81525f833d92013e5b156105b55750565b606490604051907f08c379a00000000000000000000000000000000000000000000000000000000082526004820152600f60248201527f5472616e73666572206661696c656400000000000000000000000000000000006044820152fd5b6105ad565b60646040517f08c379a000000000000000000000000000000000000000000000000000000000815260206004820152601260248201527f496e73756666696369656e742066756e647300000000000000000000000000006044820152fdfea26469706673582212202a3a9461ad0f63181a87f9ff09e02176000240ba048bd845ecd2acc0682b3ad764736f6c634300081a0033a65f96fc951c35ead38878e0f0b7a3c744a6f5ccc1476b313353ce31712313ad","linkReferences":{}},"methodIdentifiers":{"coverDebt()":"7a90b990","pay(uint256)":"c290d691","react((uint256,address,uint256,uint256,uint256,uint256,bytes,uint256,uint256,uint256,uint256,uint256))":"0d152c2c"},"id":76}