{"abi":[{"type":"constructor","inputs":[{"name":"_poolManager","type":"address","internalType":"contract IPoolManager"},{"name":"_hook","type":"address","internalType":"address"}],"stateMutability":"nonpayable"},{"type":"function","name":"claim","inputs":[{"name":"token","type":"address","internalType":"address"}],"outputs":[],"stateMutability":"nonpayable"},{"type":"function","name":"claimable","inputs":[{"name":"","type":"address","internalType":"address"},{"name":"","type":"address","internalType":"address"}],"outputs":[{"name":"","type":"uint256","internalType":"uint256"}],"stateMutability":"view"},{"type":"function","name":"deposit","inputs":[{"name":"commitmentId","type":"bytes32","internalType":"bytes32"},{"name":"token","type":"address","internalType":"address"},{"name":"amount","type":"uint128","internalType":"uint128"}],"outputs":[],"stateMutability":"nonpayable"},{"type":"function","name":"depositAmount","inputs":[{"name":"","type":"bytes32","internalType":"bytes32"}],"outputs":[{"name":"","type":"uint128","internalType":"uint128"}],"stateMutability":"view"},{"type":"function","name":"depositOwner","inputs":[{"name":"","type":"bytes32","internalType":"bytes32"}],"outputs":[{"name":"","type":"address","internalType":"address"}],"stateMutability":"view"},{"type":"function","name":"depositToken","inputs":[{"name":"","type":"bytes32","internalType":"bytes32"}],"outputs":[{"name":"","type":"address","internalType":"address"}],"stateMutability":"view"},{"type":"function","name":"executeSwap","inputs":[{"name":"commitmentId","type":"bytes32","internalType":"bytes32"},{"name":"key","type":"tuple","internalType":"struct PoolKey","components":[{"name":"currency0","type":"address","internalType":"Currency"},{"name":"currency1","type":"address","internalType":"Currency"},{"name":"fee","type":"uint24","internalType":"uint24"},{"name":"tickSpacing","type":"int24","internalType":"int24"},{"name":"hooks","type":"address","internalType":"contract IHooks"}]},{"name":"zeroForOne","type":"bool","internalType":"bool"}],"outputs":[],"stateMutability":"nonpayable"},{"type":"function","name":"hook","inputs":[],"outputs":[{"name":"","type":"address","internalType":"address"}],"stateMutability":"view"},{"type":"function","name":"poolManager","inputs":[],"outputs":[{"name":"","type":"address","internalType":"contract IPoolManager"}],"stateMutability":"view"},{"type":"function","name":"refund","inputs":[{"name":"commitmentId","type":"bytes32","internalType":"bytes32"}],"outputs":[],"stateMutability":"nonpayable"},{"type":"function","name":"unlockCallback","inputs":[{"name":"data","type":"bytes","internalType":"bytes"}],"outputs":[{"name":"","type":"bytes","internalType":"bytes"}],"stateMutability":"nonpayable"},{"type":"event","name":"Claimed","inputs":[{"name":"owner","type":"address","indexed":true,"internalType":"address"},{"name":"token","type":"address","indexed":false,"internalType":"address"},{"name":"amount","type":"uint256","indexed":false,"internalType":"uint256"}],"anonymous":false},{"type":"event","name":"Deposited","inputs":[{"name":"commitmentId","type":"bytes32","indexed":true,"internalType":"bytes32"},{"name":"owner","type":"address","indexed":true,"internalType":"address"},{"name":"token","type":"address","indexed":false,"internalType":"address"},{"name":"amount","type":"uint128","indexed":false,"internalType":"uint128"}],"anonymous":false},{"type":"event","name":"Refunded","inputs":[{"name":"commitmentId","type":"bytes32","indexed":true,"internalType":"bytes32"},{"name":"owner","type":"address","indexed":true,"internalType":"address"},{"name":"amount","type":"uint256","indexed":false,"internalType":"uint256"}],"anonymous":false},{"type":"event","name":"SwapExecuted","inputs":[{"name":"commitmentId","type":"bytes32","indexed":true,"internalType":"bytes32"},{"name":"owner","type":"address","indexed":true,"internalType":"address"},{"name":"amountOut","type":"uint256","indexed":false,"internalType":"uint256"}],"anonymous":false},{"type":"error","name":"InsufficientDeposit","inputs":[]},{"type":"error","name":"NothingToClaim","inputs":[]},{"type":"error","name":"OnlyHook","inputs":[]},{"type":"error","name":"TransferFailed","inputs":[]}],"bytecode":{"object":"0x60c034609b57601f61158338819003918201601f19168301916001600160401b03831184841017609f578084926040948552833981010312609b578051906001600160a01b0382168203609b5760200151906001600160a01b0382168203609b5760805260a0526040516114cf90816100b4823960805181818160e1015281816102640152610d97015260a0518181816109170152610baa0152f35b5f80fd5b634e487b7160e01b5f52604160045260245ffdfe6080806040526004361015610012575f80fd5b5f905f3560e01c90816301fecab61461132c575080631e83409a14611173578063466bef8014610fa4578063509cfe0314610f475780635bde47f714610b285780637249fbb61461093b5780637f5a7c7b146108cd57806391dd7346146101df578063caca9ccd14610181578063d4570c1c146101085763dc4c90d314610097575f80fd5b3461010557807ffffffffffffffffffffffffffffffffffffffffffffffffffffffffffffffffc36011261010557602060405173ffffffffffffffffffffffffffffffffffffffff7f0000000000000000000000000000000000000000000000000000000000000000168152f35b80fd5b50346101055760407ffffffffffffffffffffffffffffffffffffffffffffffffffffffffffffffffc3601126101055773ffffffffffffffffffffffffffffffffffffffff6040610157611382565b92826101616113a5565b9416815260036020522091165f52602052602060405f2054604051908152f35b50346101055760207ffffffffffffffffffffffffffffffffffffffffffffffffffffffffffffffffc3601126101055773ffffffffffffffffffffffffffffffffffffffff6040602092600435815260018452205416604051908152f35b50346107f05760207ffffffffffffffffffffffffffffffffffffffffffffffffffffffffffffffffc3601126107f05760043567ffffffffffffffff81116107f057366023820112156107f057806004013567ffffffffffffffff81116107f0578101903660248301116107f05773ffffffffffffffffffffffffffffffffffffffff7f000000000000000000000000000000000000000000000000000000000000000016918233036107f05781900361012081126107f05760a0136107f05760405160a0810181811067ffffffffffffffff821117610885576040526102c8602483016113c8565b81526102d6604483016113c8565b926020820193845260648301359362ffffff851685036107f0576040830194855260848401358060020b81036107f0576060840190815261031960a486016113c8565b906080850191825260c4860135958615158088036107f05760e4820135916fffffffffffffffffffffffffffffffff83168093036107f0576103816101248261037a61010473ffffffffffffffffffffffffffffffffffffffff95016113c8565b50016113c8565b16937f800000000000000000000000000000000000000000000000000000000000000083146108115788156108b2576401000276a4935b604051926060840184811067ffffffffffffffff82111761088557604052835260208301935f038452604083019473ffffffffffffffffffffffffffffffffffffffff1685526040519a7ff3cd914c000000000000000000000000000000000000000000000000000000008c52895173ffffffffffffffffffffffffffffffffffffffff1660048d0152875173ffffffffffffffffffffffffffffffffffffffff1660248d01525162ffffff1660448c01525160020b60648b01525173ffffffffffffffffffffffffffffffffffffffff1660848a015251151560a48901525160c48801525173ffffffffffffffffffffffffffffffffffffffff1660e48701526101048601610120905261012486015f90528580845a925f61014492602095f19586156107e5575f96610851575b508415610847578560801d955b851561083e57600f0b955b600f0b5f8112610613575b50508594600f0b92868413610546575b6105428660405190602082015260208152610536604082611431565b604051918291826113e9565b0390f35b9294508493869373ffffffffffffffffffffffffffffffffffffffff92911561060957505116905b803b156106055773ffffffffffffffffffffffffffffffffffffffff918360649260405196879586947f0b0d9c0900000000000000000000000000000000000000000000000000000000865216600485015230602485015260448401525af180156105fa576105e1575b8080808061051a565b6105ec838092611431565b6105f657816105d8565b5080fd5b6040513d85823e3d90fd5b8280fd5b905051169061056e565b7fffffffffffffffffffffffffffffffff8000000000000000000000000000000081146108115785156107f45773ffffffffffffffffffffffffffffffffffffffff8551165b843b156107f05773ffffffffffffffffffffffffffffffffffffffff604051917fa58411940000000000000000000000000000000000000000000000000000000083521660048201525f8160248183895af180156107e5576107cc575b506040517fa9059cbb00000000000000000000000000000000000000000000000000000000815273ffffffffffffffffffffffffffffffffffffffff851660048201525f91909103600f0b6024820152906020908290818a81604481015b03925af180156107945761079f575b506040517f11da60b40000000000000000000000000000000000000000000000000000000081526020816004818a875af1801561079457610765575b8061050a565b6107869060203d60201161078d575b61077e8183611431565b81019061148a565b505f61075f565b503d610774565b6040513d89823e3d90fd5b6107c09060203d6020116107c5575b6107b88183611431565b810190611472565b610723565b503d6107ae565b6107da919298505f90611431565b5f96906107146106b6565b6040513d5f823e3d90fd5b5f80fd5b73ffffffffffffffffffffffffffffffffffffffff835116610659565b7f4e487b71000000000000000000000000000000000000000000000000000000005f52601160045260245ffd5b60801d956104ff565b85600f0b956104f4565b9095506020813d60201161087d575b8161086d60209383611431565b810103126107f05751945f6104e7565b3d9150610860565b7f4e487b71000000000000000000000000000000000000000000000000000000005f52604160045260245ffd5b73fffd8963efd1fc6a506488495d951d5263988d25936103b8565b346107f0575f7ffffffffffffffffffffffffffffffffffffffffffffffffffffffffffffffffc3601126107f057602060405173ffffffffffffffffffffffffffffffffffffffff7f0000000000000000000000000000000000000000000000000000000000000000168152f35b346107f05760207ffffffffffffffffffffffffffffffffffffffffffffffffffffffffffffffffc3601126107f057600435805f52600160205273ffffffffffffffffffffffffffffffffffffffff60405f2054163303610b00575f818152600260209081526040808320805484845282852080547fffffffffffffffffffffffffffffffff00000000000000000000000000000000831690935580547fffffffffffffffffffffffff0000000000000000000000000000000000000000908116909155600185528386208054909116905591517fa9059cbb0000000000000000000000000000000000000000000000000000000081523360048201526fffffffffffffffffffffffffffffffff9092166024830181905294939192918391604491839173ffffffffffffffffffffffffffffffffffffffff165af19081156107e5575f91610ae1575b5015610ab9576040519182527ff552ca82e113ac3c539c3d617f29fcd19c172a0c75dad017555c9e109f7fe18360203393a3005b7f90b8ec18000000000000000000000000000000000000000000000000000000005f5260045ffd5b610afa915060203d6020116107c5576107b88183611431565b83610a85565b7f0e1eddda000000000000000000000000000000000000000000000000000000005f5260045ffd5b346107f05760e07ffffffffffffffffffffffffffffffffffffffffffffffffffffffffffffffffc3601126107f05760043560a07fffffffffffffffffffffffffffffffffffffffffffffffffffffffffffffffdc3601126107f05760c43590811515918281036107f05773ffffffffffffffffffffffffffffffffffffffff7f0000000000000000000000000000000000000000000000000000000000000000163303610f1f57815f5260026020526fffffffffffffffffffffffffffffffff60405f205416928315610b00575f83815260016020818152604080842080548584528286208054600286529684902080547fffffffffffffffffffffffffffffffff0000000000000000000000000000000016905580547fffffffffffffffffffffffff0000000000000000000000000000000000000000908116909155949093528054909316909255905173ffffffffffffffffffffffffffffffffffffffff918216969282169390929091610c9e6113a5565b1660208401526044359273ffffffffffffffffffffffffffffffffffffffff8416948585036107f05785604083015260643562ffffff81168091036107f05760608301526084358060020b8091036107f057608083015260a4359273ffffffffffffffffffffffffffffffffffffffff84168094036107f057610d7d945f9460a085015260c084015260e0830152886101008301526101208201526101208152610d4a61014082611431565b604051809381927f48c89491000000000000000000000000000000000000000000000000000000008352600483016113e9565b03818373ffffffffffffffffffffffffffffffffffffffff7f0000000000000000000000000000000000000000000000000000000000000000165af19081156107e5575f91610e77575b50602081519181808201938492010103126107f057519215610e4d57505b835f52600360205273ffffffffffffffffffffffffffffffffffffffff60405f2091165f5260205260405f20805491808301809311610811577f22421962bfaa39dd537a12f6e9a519f79eea832ac6dfd20e0dc3d125c8eac2999260209255604051908152a3005b505060243573ffffffffffffffffffffffffffffffffffffffff8116908181036107f05750610de5565b90503d805f833e610e888183611431565b8101906020818303126107f05780519067ffffffffffffffff82116107f0570181601f820112156107f05780519067ffffffffffffffff82116108855760405192610efb60207fffffffffffffffffffffffffffffffffffffffffffffffffffffffffffffffe0601f8601160185611431565b828452602083830101116107f057815f9260208093018386015e8301015286610dc7565b7f5a91834f000000000000000000000000000000000000000000000000000000005f5260045ffd5b346107f05760207ffffffffffffffffffffffffffffffffffffffffffffffffffffffffffffffffc3601126107f0576004355f525f602052602073ffffffffffffffffffffffffffffffffffffffff60405f205416604051908152f35b346107f05760607ffffffffffffffffffffffffffffffffffffffffffffffffffffffffffffffffc3601126107f057600435610fde6113a5565b90604435916fffffffffffffffffffffffffffffffff83168093036107f0578215610b005773ffffffffffffffffffffffffffffffffffffffff16916040517f23b872dd0000000000000000000000000000000000000000000000000000000081523360048201523060248201528160448201526020816064815f885af19081156107e5575f91611154575b5015610ab957815f525f60205260405f20837fffffffffffffffffffffffff0000000000000000000000000000000000000000825416179055815f52600160205260405f2073ffffffffffffffffffffffffffffffffffffffff33167fffffffffffffffffffffffff0000000000000000000000000000000000000000825416179055815f52600260205260405f20817fffffffffffffffffffffffffffffffff0000000000000000000000000000000082541617905560405192835260208301527f877905eab738871de43848b3f4fcd9ec61d98d2e4c37f43471babf7c7cefde7360403393a3005b61116d915060203d6020116107c5576107b88183611431565b8461106a565b346107f05760207ffffffffffffffffffffffffffffffffffffffffffffffffffffffffffffffffc3601126107f0576111aa611382565b335f52600360205260405f2073ffffffffffffffffffffffffffffffffffffffff82165f5260205260405f2054801561130457335f52600360205260405f2073ffffffffffffffffffffffffffffffffffffffff83165f526020525f60408120556040517fa9059cbb000000000000000000000000000000000000000000000000000000008152602081806112668533600484016020909392919373ffffffffffffffffffffffffffffffffffffffff60408201951681520152565b03815f73ffffffffffffffffffffffffffffffffffffffff88165af19081156107e5575f916112e5575b5015610ab9576040805173ffffffffffffffffffffffffffffffffffffffff939093168352602083019190915233917ff7a40077ff7a04c7e61f6f26fb13774259ddf1b6bce9ecf26a8276cdd39926839190a2005b6112fe915060203d6020116107c5576107b88183611431565b83611290565b7f969bf728000000000000000000000000000000000000000000000000000000005f5260045ffd5b346107f05760207ffffffffffffffffffffffffffffffffffffffffffffffffffffffffffffffffc3601126107f0576020906004355f52600282526fffffffffffffffffffffffffffffffff60405f2054168152f35b6004359073ffffffffffffffffffffffffffffffffffffffff821682036107f057565b6024359073ffffffffffffffffffffffffffffffffffffffff821682036107f057565b359073ffffffffffffffffffffffffffffffffffffffff821682036107f057565b7fffffffffffffffffffffffffffffffffffffffffffffffffffffffffffffffe0601f602060409481855280519182918282880152018686015e5f8582860101520116010190565b90601f7fffffffffffffffffffffffffffffffffffffffffffffffffffffffffffffffe0910116810190811067ffffffffffffffff82111761088557604052565b908160209103126107f0575180151581036107f05790565b908160209103126107f057519056fea26469706673582212202434677013427a1ae37bb3f3a42e43540e015a270126a96648a16ea94d37c54c64736f6c634300081a0033","linkReferences":{}},"methodIdentifiers":{"claim(address)":"1e83409a","claimable(address,address)":"d4570c1c","deposit(bytes32,address,uint128)":"466bef80","depositAmount(bytes32)":"01fecab6","depositOwner(bytes32)":"caca9ccd","depositToken(bytes32)":"509cfe03","executeSwap(bytes32,(address,address,uint24,int24,address),bool)":"5bde47f7","hook()":"7f5a7c7b","poolManager()":"dc4c90d3","refund(bytes32)":"7249fbb6","unlockCallback(bytes)":"91dd7346"},"id":65}