{"abi":[{"type":"constructor","inputs":[{"name":"_poolManager","type":"address","internalType":"contract IPoolManager"},{"name":"_verifier","type":"address","internalType":"contract IZKVerifier"},{"name":"_settlement","type":"address","internalType":"contract TWAMMSettlement"}],"stateMutability":"nonpayable"},{"type":"function","name":"LP_REBATE_BPS","inputs":[],"outputs":[{"name":"","type":"uint256","internalType":"uint256"}],"stateMutability":"view"},{"type":"function","name":"MAX_ORDER_DELAY","inputs":[],"outputs":[{"name":"","type":"uint64","internalType":"uint64"}],"stateMutability":"view"},{"type":"function","name":"MIN_ORDER_DELAY","inputs":[],"outputs":[{"name":"","type":"uint64","internalType":"uint64"}],"stateMutability":"view"},{"type":"function","name":"afterAddLiquidity","inputs":[{"name":"","type":"address","internalType":"address"},{"name":"","type":"tuple","internalType":"struct PoolKey","components":[{"name":"currency0","type":"address","internalType":"Currency"},{"name":"currency1","type":"address","internalType":"Currency"},{"name":"fee","type":"uint24","internalType":"uint24"},{"name":"tickSpacing","type":"int24","internalType":"int24"},{"name":"hooks","type":"address","internalType":"contract IHooks"}]},{"name":"","type":"tuple","internalType":"struct ModifyLiquidityParams","components":[{"name":"tickLower","type":"int24","internalType":"int24"},{"name":"tickUpper","type":"int24","internalType":"int24"},{"name":"liquidityDelta","type":"int256","internalType":"int256"},{"name":"salt","type":"bytes32","internalType":"bytes32"}]},{"name":"","type":"int256","internalType":"BalanceDelta"},{"name":"","type":"int256","internalType":"BalanceDelta"},{"name":"","type":"bytes","internalType":"bytes"}],"outputs":[{"name":"","type":"bytes4","internalType":"bytes4"},{"name":"","type":"int256","internalType":"BalanceDelta"}],"stateMutability":"pure"},{"type":"function","name":"afterDonate","inputs":[{"name":"","type":"address","internalType":"address"},{"name":"","type":"tuple","internalType":"struct PoolKey","components":[{"name":"currency0","type":"address","internalType":"Currency"},{"name":"currency1","type":"address","internalType":"Currency"},{"name":"fee","type":"uint24","internalType":"uint24"},{"name":"tickSpacing","type":"int24","internalType":"int24"},{"name":"hooks","type":"address","internalType":"contract IHooks"}]},{"name":"","type":"uint256","internalType":"uint256"},{"name":"","type":"uint256","internalType":"uint256"},{"name":"","type":"bytes","internalType":"bytes"}],"outputs":[{"name":"","type":"bytes4","internalType":"bytes4"}],"stateMutability":"pure"},{"type":"function","name":"afterInitialize","inputs":[{"name":"","type":"address","internalType":"address"},{"name":"","type":"tuple","internalType":"struct PoolKey","components":[{"name":"currency0","type":"address","internalType":"Currency"},{"name":"currency1","type":"address","internalType":"Currency"},{"name":"fee","type":"uint24","internalType":"uint24"},{"name":"tickSpacing","type":"int24","internalType":"int24"},{"name":"hooks","type":"address","internalType":"contract IHooks"}]},{"name":"","type":"uint160","internalType":"uint160"},{"name":"","type":"int24","internalType":"int24"}],"outputs":[{"name":"","type":"bytes4","internalType":"bytes4"}],"stateMutability":"pure"},{"type":"function","name":"afterRemoveLiquidity","inputs":[{"name":"","type":"address","internalType":"address"},{"name":"","type":"tuple","internalType":"struct PoolKey","components":[{"name":"currency0","type":"address","internalType":"Currency"},{"name":"currency1","type":"address","internalType":"Currency"},{"name":"fee","type":"uint24","internalType":"uint24"},{"name":"tickSpacing","type":"int24","internalType":"int24"},{"name":"hooks","type":"address","internalType":"contract IHooks"}]},{"name":"","type":"tuple","internalType":"struct ModifyLiquidityParams","components":[{"name":"tickLower","type":"int24","internalType":"int24"},{"name":"tickUpper","type":"int24","internalType":"int24"},{"name":"liquidityDelta","type":"int256","internalType":"int256"},{"name":"salt","type":"bytes32","internalType":"bytes32"}]},{"name":"","type":"int256","internalType":"BalanceDelta"},{"name":"","type":"int256","internalType":"BalanceDelta"},{"name":"","type":"bytes","internalType":"bytes"}],"outputs":[{"name":"","type":"bytes4","internalType":"bytes4"},{"name":"","type":"int256","internalType":"BalanceDelta"}],"stateMutability":"pure"},{"type":"function","name":"afterSwap","inputs":[{"name":"","type":"address","internalType":"address"},{"name":"key","type":"tuple","internalType":"struct PoolKey","components":[{"name":"currency0","type":"address","internalType":"Currency"},{"name":"currency1","type":"address","internalType":"Currency"},{"name":"fee","type":"uint24","internalType":"uint24"},{"name":"tickSpacing","type":"int24","internalType":"int24"},{"name":"hooks","type":"address","internalType":"contract IHooks"}]},{"name":"params","type":"tuple","internalType":"struct SwapParams","components":[{"name":"zeroForOne","type":"bool","internalType":"bool"},{"name":"amountSpecified","type":"int256","internalType":"int256"},{"name":"sqrtPriceLimitX96","type":"uint160","internalType":"uint160"}]},{"name":"delta","type":"int256","internalType":"BalanceDelta"},{"name":"","type":"bytes","internalType":"bytes"}],"outputs":[{"name":"","type":"bytes4","internalType":"bytes4"},{"name":"","type":"int128","internalType":"int128"}],"stateMutability":"nonpayable"},{"type":"function","name":"beforeAddLiquidity","inputs":[{"name":"","type":"address","internalType":"address"},{"name":"","type":"tuple","internalType":"struct PoolKey","components":[{"name":"currency0","type":"address","internalType":"Currency"},{"name":"currency1","type":"address","internalType":"Currency"},{"name":"fee","type":"uint24","internalType":"uint24"},{"name":"tickSpacing","type":"int24","internalType":"int24"},{"name":"hooks","type":"address","internalType":"contract IHooks"}]},{"name":"","type":"tuple","internalType":"struct ModifyLiquidityParams","components":[{"name":"tickLower","type":"int24","internalType":"int24"},{"name":"tickUpper","type":"int24","internalType":"int24"},{"name":"liquidityDelta","type":"int256","internalType":"int256"},{"name":"salt","type":"bytes32","internalType":"bytes32"}]},{"name":"","type":"bytes","internalType":"bytes"}],"outputs":[{"name":"","type":"bytes4","internalType":"bytes4"}],"stateMutability":"pure"},{"type":"function","name":"beforeDonate","inputs":[{"name":"","type":"address","internalType":"address"},{"name":"","type":"tuple","internalType":"struct PoolKey","components":[{"name":"currency0","type":"address","internalType":"Currency"},{"name":"currency1","type":"address","internalType":"Currency"},{"name":"fee","type":"uint24","internalType":"uint24"},{"name":"tickSpacing","type":"int24","internalType":"int24"},{"name":"hooks","type":"address","internalType":"contract IHooks"}]},{"name":"","type":"uint256","internalType":"uint256"},{"name":"","type":"uint256","internalType":"uint256"},{"name":"","type":"bytes","internalType":"bytes"}],"outputs":[{"name":"","type":"bytes4","internalType":"bytes4"}],"stateMutability":"pure"},{"type":"function","name":"beforeInitialize","inputs":[{"name":"","type":"address","internalType":"address"},{"name":"","type":"tuple","internalType":"struct PoolKey","components":[{"name":"currency0","type":"address","internalType":"Currency"},{"name":"currency1","type":"address","internalType":"Currency"},{"name":"fee","type":"uint24","internalType":"uint24"},{"name":"tickSpacing","type":"int24","internalType":"int24"},{"name":"hooks","type":"address","internalType":"contract IHooks"}]},{"name":"","type":"uint160","internalType":"uint160"}],"outputs":[{"name":"","type":"bytes4","internalType":"bytes4"}],"stateMutability":"pure"},{"type":"function","name":"beforeRemoveLiquidity","inputs":[{"name":"","type":"address","internalType":"address"},{"name":"","type":"tuple","internalType":"struct PoolKey","components":[{"name":"currency0","type":"address","internalType":"Currency"},{"name":"currency1","type":"address","internalType":"Currency"},{"name":"fee","type":"uint24","internalType":"uint24"},{"name":"tickSpacing","type":"int24","internalType":"int24"},{"name":"hooks","type":"address","internalType":"contract IHooks"}]},{"name":"","type":"tuple","internalType":"struct ModifyLiquidityParams","components":[{"name":"tickLower","type":"int24","internalType":"int24"},{"name":"tickUpper","type":"int24","internalType":"int24"},{"name":"liquidityDelta","type":"int256","internalType":"int256"},{"name":"salt","type":"bytes32","internalType":"bytes32"}]},{"name":"","type":"bytes","internalType":"bytes"}],"outputs":[{"name":"","type":"bytes4","internalType":"bytes4"}],"stateMutability":"pure"},{"type":"function","name":"beforeSwap","inputs":[{"name":"","type":"address","internalType":"address"},{"name":"key","type":"tuple","internalType":"struct PoolKey","components":[{"name":"currency0","type":"address","internalType":"Currency"},{"name":"currency1","type":"address","internalType":"Currency"},{"name":"fee","type":"uint24","internalType":"uint24"},{"name":"tickSpacing","type":"int24","internalType":"int24"},{"name":"hooks","type":"address","internalType":"contract IHooks"}]},{"name":"","type":"tuple","internalType":"struct SwapParams","components":[{"name":"zeroForOne","type":"bool","internalType":"bool"},{"name":"amountSpecified","type":"int256","internalType":"int256"},{"name":"sqrtPriceLimitX96","type":"uint160","internalType":"uint160"}]},{"name":"","type":"bytes","internalType":"bytes"}],"outputs":[{"name":"","type":"bytes4","internalType":"bytes4"},{"name":"","type":"int256","internalType":"BeforeSwapDelta"},{"name":"","type":"uint24","internalType":"uint24"}],"stateMutability":"nonpayable"},{"type":"function","name":"cancelOrder","inputs":[{"name":"poolId","type":"bytes32","internalType":"PoolId"},{"name":"commitmentId","type":"bytes32","internalType":"bytes32"}],"outputs":[],"stateMutability":"nonpayable"},{"type":"function","name":"commitOrder","inputs":[{"name":"poolId","type":"bytes32","internalType":"PoolId"},{"name":"hash","type":"bytes32","internalType":"bytes32"},{"name":"delay","type":"uint64","internalType":"uint64"}],"outputs":[{"name":"commitmentId","type":"bytes32","internalType":"bytes32"}],"stateMutability":"nonpayable"},{"type":"function","name":"distributeLPRebate","inputs":[{"name":"poolId","type":"bytes32","internalType":"PoolId"}],"outputs":[],"stateMutability":"nonpayable"},{"type":"function","name":"getCommitment","inputs":[{"name":"poolId","type":"bytes32","internalType":"PoolId"},{"name":"commitmentId","type":"bytes32","internalType":"bytes32"}],"outputs":[{"name":"","type":"tuple","internalType":"struct ITWAMMXHook.Commitment","components":[{"name":"hash","type":"bytes32","internalType":"bytes32"},{"name":"expiry","type":"uint64","internalType":"uint64"},{"name":"revealed","type":"bool","internalType":"bool"}]}],"stateMutability":"view"},{"type":"function","name":"lpRebateAccrued","inputs":[{"name":"poolId","type":"bytes32","internalType":"PoolId"}],"outputs":[{"name":"amount0","type":"uint256","internalType":"uint256"},{"name":"amount1","type":"uint256","internalType":"uint256"}],"stateMutability":"view"},{"type":"function","name":"pendingSells","inputs":[{"name":"poolId","type":"bytes32","internalType":"PoolId"}],"outputs":[{"name":"sell0","type":"uint128","internalType":"uint128"},{"name":"sell1","type":"uint128","internalType":"uint128"}],"stateMutability":"view"},{"type":"function","name":"poolManager","inputs":[],"outputs":[{"name":"","type":"address","internalType":"contract IPoolManager"}],"stateMutability":"view"},{"type":"function","name":"revealOrder","inputs":[{"name":"poolId","type":"bytes32","internalType":"PoolId"},{"name":"commitmentId","type":"bytes32","internalType":"bytes32"},{"name":"amountIn","type":"uint128","internalType":"uint128"},{"name":"zeroForOne","type":"bool","internalType":"bool"},{"name":"salt","type":"bytes32","internalType":"bytes32"},{"name":"pA","type":"uint256[2]","internalType":"uint256[2]"},{"name":"pB","type":"uint256[2][2]","internalType":"uint256[2][2]"},{"name":"pC","type":"uint256[2]","internalType":"uint256[2]"}],"outputs":[],"stateMutability":"nonpayable"},{"type":"function","name":"settlement","inputs":[],"outputs":[{"name":"","type":"address","internalType":"contract TWAMMSettlement"}],"stateMutability":"view"},{"type":"function","name":"unlockCallback","inputs":[{"name":"data","type":"bytes","internalType":"bytes"}],"outputs":[{"name":"","type":"bytes","internalType":"bytes"}],"stateMutability":"nonpayable"},{"type":"function","name":"verifier","inputs":[],"outputs":[{"name":"","type":"address","internalType":"contract IZKVerifier"}],"stateMutability":"view"},{"type":"event","name":"BatchExecuted","inputs":[{"name":"poolId","type":"bytes32","indexed":true,"internalType":"PoolId"},{"name":"sell0Executed","type":"uint128","indexed":false,"internalType":"uint128"},{"name":"sell1Executed","type":"uint128","indexed":false,"internalType":"uint128"},{"name":"twapPrice","type":"uint256","indexed":false,"internalType":"uint256"}],"anonymous":false},{"type":"event","name":"LPRebateDistributed","inputs":[{"name":"poolId","type":"bytes32","indexed":true,"internalType":"PoolId"},{"name":"amount0","type":"uint256","indexed":false,"internalType":"uint256"},{"name":"amount1","type":"uint256","indexed":false,"internalType":"uint256"}],"anonymous":false},{"type":"event","name":"OrderCancelled","inputs":[{"name":"poolId","type":"bytes32","indexed":true,"internalType":"PoolId"},{"name":"commitmentId","type":"bytes32","indexed":true,"internalType":"bytes32"},{"name":"owner","type":"address","indexed":true,"internalType":"address"}],"anonymous":false},{"type":"event","name":"OrderCommitted","inputs":[{"name":"poolId","type":"bytes32","indexed":true,"internalType":"PoolId"},{"name":"commitmentId","type":"bytes32","indexed":true,"internalType":"bytes32"},{"name":"owner","type":"address","indexed":true,"internalType":"address"},{"name":"expiry","type":"uint64","indexed":false,"internalType":"uint64"}],"anonymous":false},{"type":"event","name":"OrderRevealed","inputs":[{"name":"poolId","type":"bytes32","indexed":true,"internalType":"PoolId"},{"name":"commitmentId","type":"bytes32","indexed":true,"internalType":"bytes32"},{"name":"amountIn","type":"uint128","indexed":false,"internalType":"uint128"},{"name":"zeroForOne","type":"bool","indexed":false,"internalType":"bool"}],"anonymous":false},{"type":"error","name":"CommitmentAlreadyRevealed","inputs":[]},{"type":"error","name":"CommitmentNotExpired","inputs":[]},{"type":"error","name":"CommitmentNotFound","inputs":[]},{"type":"error","name":"HashMismatch","inputs":[]},{"type":"error","name":"InvalidDelay","inputs":[]},{"type":"error","name":"InvalidProof","inputs":[]},{"type":"error","name":"NothingToDistribute","inputs":[]},{"type":"error","name":"OnlyPoolManager","inputs":[]},{"type":"error","name":"ZeroAmount","inputs":[]}],"bytecode":{"object":"0x60e0346100d957601f61390938819003918201601f19168301916001600160401b038311848410176100dd578084926060946040528339810103126100d9578051906001600160a01b03821682036100d9576020810151906001600160a01b03821682036100d95760400151916001600160a01b03831683036100d95760805260a05260c05260405161381790816100f2823960805181818161024801528181610b4e015281816110e501528181611bc50152612969015260a05181818161052a01526121c7015260c0518181816106b30152611ae40152f35b5f80fd5b634e487b7160e01b5f52604160045260245ffdfe6080806040526004361015610012575f80fd5b5f905f3560e01c9081631b2ad62a146122655750806321d0ee7014612228578063259982e5146121eb5780632b7ac3f31461217d57806332cfb81514612142578063437b0e9a146120ea5780634d767e6914611e5357806350f81c5214611b085780635116063014611a9a578063575e24b4146117675780636c2bbe7e146117235780636fe7e6eb1461168457806371aedf721461164b57806391dd73461461107c5780639f063efc14611036578063a47d9d3314610ed0578063b47b2fb114610993578063b6a8b0fa14610954578063b6c3b5f814610332578063c19cc87a146102a6578063cd52edad1461026c578063dc4c90d3146101fd578063dc98354e146101675763e1b4af6914610126575f80fd5b346101645761013436612577565b50505050505060206040517fe1b4af69000000000000000000000000000000000000000000000000000000008152f35b80fd5b50346101645760e07ffffffffffffffffffffffffffffffffffffffffffffffffffffffffffffffffc3601126101645761019f6122e0565b5060a07fffffffffffffffffffffffffffffffffffffffffffffffffffffffffffffffdc360112610164576101d26124cd565b5060206040517fdc98354e000000000000000000000000000000000000000000000000000000008152f35b503461016457807ffffffffffffffffffffffffffffffffffffffffffffffffffffffffffffffffc36011261016457602060405173ffffffffffffffffffffffffffffffffffffffff7f0000000000000000000000000000000000000000000000000000000000000000168152f35b503461016457807ffffffffffffffffffffffffffffffffffffffffffffffffffffffffffffffffc36011261016457602060405160058152f35b50346101645760406060916102ba36612543565b90828480516102c881612618565b8281528260208201520152825281602052828220908252602052206040516102ef81612618565b67ffffffffffffffff600183549384845201549160ff604060208301928486168452019360401c1615158352604051938452511660208301525115156040820152f35b5034610164576101a07ffffffffffffffffffffffffffffffffffffffffffffffffffffffffffffffffc36011261016457600435602435906044356fffffffffffffffffffffffffffffffff811690818103610790576064359081151591828103610950573660e41161095057366101641161095057366101a411610950578487528660205260408720868852602052604087208054908115610928576001019081549060ff8260401c166109005767ffffffffffffffff82168042106108d85787156108b057888b52600160205260408b208a8c526020528160408c20546040517fffffffffffffffffffffffffffffffffffffffff000000000000000000000000602082019260601b1682527fffffffffffffffffffffffffffffffff000000000000000000000000000000008960801b1660348201528960f81b604482015260843560458201526045815261048b60658261267d565b5190200361088857604051916104a083612618565b82528860208301526040820152604051907f11479fea000000000000000000000000000000000000000000000000000000008252604060a4600484013760e48b604484015b6002821061087257505050604061016460c48401378a61010483015b6003821061085c575050506020816101648173ffffffffffffffffffffffffffffffffffffffff7f0000000000000000000000000000000000000000000000000000000000000000165afa908115610851578a91610822575b50156107fa577fffffffffffffffffffffffffffffffffffffffffffffff00ffffffffffffffff1668010000000000000000179055156107a35783865260026020526fffffffffffffffffffffffffffffffff6105be604088209282845416612857565b167fffffffffffffffffffffffffffffffff000000000000000000000000000000008254161790555b828552600760205284604081206040519061060182612661565b73ffffffffffffffffffffffffffffffffffffffff815416825273ffffffffffffffffffffffffffffffffffffffff6002600183015492828416602086015262ffffff8460a01c169384604087015260b81c820b6060860152015416608083015261069c575b50507f7b1e29dd3d528c671927241e1da9dda865af46bc4c423f6d735324e6b47db7679160409182519182526020820152a380f35b73ffffffffffffffffffffffffffffffffffffffff7f00000000000000000000000000000000000000000000000000000000000000001690813b1561079f5761076860e484928360405195869485937f5bde47f70000000000000000000000000000000000000000000000000000000085528d6004860152602485019073ffffffffffffffffffffffffffffffffffffffff6080809282815116855282602082015116602086015262ffffff6040820151166040860152606081015160020b6060860152015116910152565b8860c48401525af18015610794571561066757816107859161267d565b61079057845f610667565b8480fd5b6040513d84823e3d90fd5b8280fd5b83865260036020526fffffffffffffffffffffffffffffffff6107cd604088209282845416612857565b167fffffffffffffffffffffffffffffffff000000000000000000000000000000008254161790556105e7565b6004897f09bde339000000000000000000000000000000000000000000000000000000008152fd5b610844915060203d60201161084a575b61083c818361267d565b8101906127e5565b5f61055a565b503d610832565b6040513d8c823e3d90fd5b6020806001928551815201930191019091610501565b60408082818660019537019301910190916104e5565b60048b7f3f4d6053000000000000000000000000000000000000000000000000000000008152fd5b60048b7f1f2a2005000000000000000000000000000000000000000000000000000000008152fd5b60048b7fd475a053000000000000000000000000000000000000000000000000000000008152fd5b60048a7f8f3d672c000000000000000000000000000000000000000000000000000000008152fd5b6004897fb6682ad2000000000000000000000000000000000000000000000000000000008152fd5b8680fd5b50346101645761096336612577565b50505050505060206040517fb6a8b0fa000000000000000000000000000000000000000000000000000000008152f35b5034610164576101607ffffffffffffffffffffffffffffffffffffffffffffffffffffffffffffffffc360112610164576109cc6122e0565b5060a07fffffffffffffffffffffffffffffffffffffffffffffffffffffffffffffffdc3601126101645760607fffffffffffffffffffffffffffffffffffffffffffffffffffffffffffffff3c3601126101645761012435906101443567ffffffffffffffff8111610ecc57610a47903690600401612303565b5050610a51612952565b60a0610a5c366126f8565b2080825260026020526fffffffffffffffffffffffffffffffff6040832054169281835260036020526fffffffffffffffffffffffffffffffff604084205416908415801590610ec3575b15610db457508183526006602052604083205467ffffffffffffffff1680610d5d575067ffffffffffffffff835b1680610b4c575b505081526006602052604080822080547fffffffffffffffffffffffffffffffffffffffffffffffff0000000000000000164267ffffffffffffffff1617905591505b8151907fb47b2fb10000000000000000000000000000000000000000000000000000000082526020820152f35b7f0000000000000000000000000000000000000000000000000000000000000000610b7684613636565b90604051917f1e2eaeaf000000000000000000000000000000000000000000000000000000008352600483015260208260248173ffffffffffffffffffffffffffffffffffffffff85165afa918215610d52578692610d00575b509573ffffffffffffffffffffffffffffffffffffffff84610c287f83b566dca93fe71a74ddaebf58cb9c5b1700ed3be921ac3e7892ef36e668a8fc9588978560609786610c2160409f8d90612889565b9116613215565b92919080610cd9575b5080610cb2575b5086895260026020528989207fffffffffffffffffffffffffffffffff00000000000000000000000000000000815416905586895260036020528989207fffffffffffffffffffffffffffffffff000000000000000000000000000000008154169055895193845260208401521687820152a25f80610adc565b610cbb906129b9565b878a526004602052610cd18b8b2091825461284a565b90555f610c38565b610ce2906129b9565b888b526005602052610cf88c8c2091825461284a565b90555f610c31565b929150956020833d602011610d4a575b81610d1d6020938361267d565b81010312610d46579151919590919073ffffffffffffffffffffffffffffffffffffffff610bd0565b5f80fd5b3d9150610d10565b6040513d88823e3d90fd5b67ffffffffffffffff42160367ffffffffffffffff8111610d875767ffffffffffffffff90610ad5565b6024847f4e487b710000000000000000000000000000000000000000000000000000000081526011600452fd5b60e4359450905082841215610e7d57507f80000000000000000000000000000000000000000000000000000000000000008314610e505760409282035b80610dfe575b5050610b1f565b610e07906129b9565b90610e1061280c565b15610e345782526004602052610e2a83832091825461284a565b90555b5f80610df7565b82526005602052610e4983832091825461284a565b9055610e2d565b6024827f4e487b710000000000000000000000000000000000000000000000000000000081526011600452fd5b604093506fffffffffffffffffffffffffffffffff90610e9b61280c565b15610eb257610eac9060801d61281b565b16610df1565b610ebe90600f0b61281b565b610eac565b50811515610aa7565b5080fd5b503461016457610edf36612543565b81835282602052604083208184526020526040832080541561100e576001015460401c60ff16610fe65781835260016020526040832081845260205273ffffffffffffffffffffffffffffffffffffffff6040842054163303610fbe578183528260205260408320818452602052826001604082208281550155818352600160205260408320818452602052604083207fffffffffffffffffffffffff0000000000000000000000000000000000000000815416905533917f2dbdb9f031c8fbcb8a51b5123a04ba32fa8e2cae5092517f0fa0a26a2c6bc88c8480a480f35b6004837fb6682ad2000000000000000000000000000000000000000000000000000000008152fd5b6004837f8f3d672c000000000000000000000000000000000000000000000000000000008152fd5b6004847fb6682ad2000000000000000000000000000000000000000000000000000000008152fd5b503461016457604090611048366123fc565b505050505050508151907f9f063efc0000000000000000000000000000000000000000000000000000000082526020820152f35b5034610d465760207ffffffffffffffffffffffffffffffffffffffffffffffffffffffffffffffffc360112610d465760043567ffffffffffffffff8111610d46576110cc903690600401612303565b919073ffffffffffffffffffffffffffffffffffffffff7f00000000000000000000000000000000000000000000000000000000000000001692833303610d46578101604082820312610d465781359160ff8316809303610d465760208101359067ffffffffffffffff8211610d46570181601f82011215610d4657803592611154846126be565b93611162604051958661267d565b808552602085019360208285010111610d46576020815f928260019601873786010152146111b8575b6111b4836040519061119e60208361267d565b8152604051918291602083526020830190612500565b0390f35b81805181010360e08112610d465760a013610d46576111e2604051916111dd83612661565b6127c4565b938482526111f2604084016127c4565b60208301908152606084015162ffffff81168103610d4657604084015260808401518060020b8103610d4657606084015260a084015173ffffffffffffffffffffffffffffffffffffffff81168103610d4657608084015260e060c085015194015190846114dc575b8596508195949561134c575b5091602093610124926112f39460405197889687957f234266d7000000000000000000000000000000000000000000000000000000008752600487019073ffffffffffffffffffffffffffffffffffffffff6080809282815116855282602082015116602086015262ffffff6040820151166040860152606081015160020b6060860152015116910152565b60a485015260c484015261010060e4840152816101048401525af1801561079457611321575b80829161118b565b602090813d8311611345575b611337818361267d565b81010312610164575f611319565b503d61132d565b909373ffffffffffffffffffffffffffffffffffffffff825116833b15610ecc57604051907fa58411940000000000000000000000000000000000000000000000000000000082526004820152818160248183885af18015610794576114c3575b5050516040517fa9059cbb00000000000000000000000000000000000000000000000000000000815273ffffffffffffffffffffffffffffffffffffffff8381166004830152602482018690529091602091839160449183918b91165af18015610d52576114a6575b50604051917f11da60b40000000000000000000000000000000000000000000000000000000083528560208460048184875af1928315611499576020956112f3956101249561146c575b50929450925093611267565b61148b90883d8a11611492575b611483818361267d565b8101906127fd565b505f611460565b503d611479565b50604051903d90823e3d90fd5b6114be9060203d60201161084a5761083c818361267d565b611416565b816114cd9161267d565b6114d857855f6113ad565b8580fd5b823b15610d465773ffffffffffffffffffffffffffffffffffffffff604051977fa58411940000000000000000000000000000000000000000000000000000000089521660048801525f8760248183875af1801561164057611628575b83516040517fa9059cbb00000000000000000000000000000000000000000000000000000000815273ffffffffffffffffffffffffffffffffffffffff8581166004830152602482018890529798509596889691602091839160449183918b91165af18015610d525761160b575b506040517f11da60b400000000000000000000000000000000000000000000000000000000815260208160048189885af18015610d52576115ec575b5094939461125b565b6116049060203d60201161149257611483818361267d565b505f6115e3565b6116239060203d60201161084a5761083c818361267d565b6115a7565b939450945f6116369161267d565b5f93928590611539565b6040513d5f823e3d90fd5b34610d46575f7ffffffffffffffffffffffffffffffffffffffffffffffffffffffffffffffffc360112610d46576020604051603c8152f35b34610d46576101007ffffffffffffffffffffffffffffffffffffffffffffffffffffffffffffffffc360112610d46576116bc6122e0565b5060a07fffffffffffffffffffffffffffffffffffffffffffffffffffffffffffffffdc360112610d46576116ef6124cd565b506116f86124f0565b5060206040517f6fe7e6eb000000000000000000000000000000000000000000000000000000008152f35b34610d4657611731366123fc565b50505050505050604080517f6c2bbe7e0000000000000000000000000000000000000000000000000000000081525f6020820152f35b34610d46576101407ffffffffffffffffffffffffffffffffffffffffffffffffffffffffffffffffc360112610d465761179f6122e0565b5060a07fffffffffffffffffffffffffffffffffffffffffffffffffffffffffffffffdc360112610d465760607fffffffffffffffffffffffffffffffffffffffffffffffffffffffffffffff3c360112610d46576101243567ffffffffffffffff8111610d4657611815903690600401612303565b505061181f612952565b60a061182a366126f8565b20805f52600760205262ffffff600160405f20015460a01c16156118e1575b805f52600660205267ffffffffffffffff60405f2054161561189c575b60606040517f575e24b40000000000000000000000000000000000000000000000000000000081525f60208201525f6040820152f35b5f52600660205260405f2067ffffffffffffffff804216167fffffffffffffffffffffffffffffffffffffffffffffffff000000000000000082541617905580611866565b805f52600760205260405f2060243573ffffffffffffffffffffffffffffffffffffffff81168103610d46578073ffffffffffffffffffffffffffffffffffffffff9150167fffffffffffffffffffffffff00000000000000000000000000000000000000008254161781556001810160443573ffffffffffffffffffffffffffffffffffffffff81168103610d465781547fffffffffffffffffffffffff00000000000000000000000000000000000000001673ffffffffffffffffffffffffffffffffffffffff90911617815560643562ffffff81168103610d465781546084358060020b8103610d465776ffffff00000000000000000000000000000000000000007fffffffffffff000000000000ffffffffffffffffffffffffffffffffffffffff9160b81b79ffffff0000000000000000000000000000000000000000000000169360a01b1691161717905560a4359073ffffffffffffffffffffffffffffffffffffffff82168203610d4657600273ffffffffffffffffffffffffffffffffffffffff910191167fffffffffffffffffffffffff0000000000000000000000000000000000000000825416179055611849565b34610d46575f7ffffffffffffffffffffffffffffffffffffffffffffffffffffffffffffffffc360112610d4657602060405173ffffffffffffffffffffffffffffffffffffffff7f0000000000000000000000000000000000000000000000000000000000000000168152f35b34610d465760207ffffffffffffffffffffffffffffffffffffffffffffffffffffffffffffffffc360112610d4657600435805f52600460205260405f2054815f52600560205260405f2054811580611e4b575b611e2357825f52600760205260405f2073ffffffffffffffffffffffffffffffffffffffff600260405192611b9084612661565b8281541684526001810154838116602086015262ffffff8160a01c16604086015260b81c820b606085015201541660808201527f00000000000000000000000000000000000000000000000000000000000000006fffffffffffffffffffffffffffffffff611bff8683612889565b1615611e2357611d405f91611cd6611d0273ffffffffffffffffffffffffffffffffffffffff9589865260046020528560408120558986526005602052856040812055611c9d60405191602083019073ffffffffffffffffffffffffffffffffffffffff6080809282815116855282602082015116602086015262ffffff6040820151166040860152606081015160020b6060860152015116910152565b8860c08201528760e082015260e08152611cb96101008261267d565b604051928391600160208401526040808401526060830190612500565b037fffffffffffffffffffffffffffffffffffffffffffffffffffffffffffffffe0810183528261267d565b836040519586809581947f48c89491000000000000000000000000000000000000000000000000000000008352602060048401526024830190612500565b0393165af1801561164057611d83575b507ff79fcab775ff06656951a5e126f4adec555daaefe25e486ddc6938750fa84d289160409182519182526020820152a2005b913d805f853e611d93818561267d565b830192602081850312610d465780519067ffffffffffffffff8211610d4657019183601f84011215610d4657825193611dcb856126be565b90611dd9604051928361267d565b85825260208686010111610d46575f6020867ff79fcab775ff06656951a5e126f4adec555daaefe25e486ddc6938750fa84d289782604098018386015e8301015250915091611d50565b7f01663f24000000000000000000000000000000000000000000000000000000005f5260045ffd5b508015611b5c565b34610d465760607ffffffffffffffffffffffffffffffffffffffffffffffffffffffffffffffffc360112610d46576004356024359060443567ffffffffffffffff8116809103610d4657603c811080156120de575b6120b657821561208e5767ffffffffffffffff42160167ffffffffffffffff811161206157602092604051848101903360601b82528260348201527fffffffffffffffff00000000000000000000000000000000000000000000000067ffffffffffffffff85169460c01b16605482015246605c820152605c8152611f2f607c8261267d565b51902092839160405190611f4282612618565b81528581019084825267ffffffffffffffff80600160408401935f8552865f525f8b5260405f20885f528b5260405f209051815501935116167fffffffffffffffffffffffffffffffffffffffffffffffff00000000000000008354161782555115157fffffffffffffffffffffffffffffffffffffffffffffff00ffffffffffffffff68ff000000000000000083549260401b169116179055805f526001855260405f20825f52855260405f2073ffffffffffffffffffffffffffffffffffffffff33167fffffffffffffffffffffffff00000000000000000000000000000000000000008254161790556040519283527f5344e3b9f99226aa980433e15d5dd7ea2340bc409069ed6523aabb5c4001840d853394a4604051908152f35b7f4e487b71000000000000000000000000000000000000000000000000000000005f52601160045260245ffd5b7f1f2a2005000000000000000000000000000000000000000000000000000000005f5260045ffd5b7f4fbe5dba000000000000000000000000000000000000000000000000000000005f5260045ffd5b5062093a808111611ea9565b34610d465760207ffffffffffffffffffffffffffffffffffffffffffffffffffffffffffffffffc360112610d46576040600435805f526004602052815f2054905f526005602052815f205482519182526020820152f35b34610d46575f7ffffffffffffffffffffffffffffffffffffffffffffffffffffffffffffffffc360112610d4657602060405162093a808152f35b34610d46575f7ffffffffffffffffffffffffffffffffffffffffffffffffffffffffffffffffc360112610d4657602060405173ffffffffffffffffffffffffffffffffffffffff7f0000000000000000000000000000000000000000000000000000000000000000168152f35b34610d46576121f936612331565b505050505060206040517f259982e5000000000000000000000000000000000000000000000000000000008152f35b34610d465761223636612331565b505050505060206040517f21d0ee70000000000000000000000000000000000000000000000000000000008152f35b34610d465760207ffffffffffffffffffffffffffffffffffffffffffffffffffffffffffffffffc360112610d4657604090600435805f5260026020526fffffffffffffffffffffffffffffffff835f205416905f5260036020526fffffffffffffffffffffffffffffffff835f2054169082526020820152f35b6004359073ffffffffffffffffffffffffffffffffffffffff82168203610d4657565b9181601f84011215610d465782359167ffffffffffffffff8311610d465760208381860195010111610d4657565b906101607ffffffffffffffffffffffffffffffffffffffffffffffffffffffffffffffffc830112610d465760043573ffffffffffffffffffffffffffffffffffffffff81168103610d46579160a07fffffffffffffffffffffffffffffffffffffffffffffffffffffffffffffffdc820112610d465760249160807fffffffffffffffffffffffffffffffffffffffffffffffffffffffffffffff3c830112610d465760c491610144359067ffffffffffffffff8211610d46576123f891600401612303565b9091565b906101a07ffffffffffffffffffffffffffffffffffffffffffffffffffffffffffffffffc830112610d465760043573ffffffffffffffffffffffffffffffffffffffff81168103610d46579160a07fffffffffffffffffffffffffffffffffffffffffffffffffffffffffffffffdc820112610d465760249160807fffffffffffffffffffffffffffffffffffffffffffffffffffffffffffffff3c830112610d465760c49161014435916101643591610184359067ffffffffffffffff8211610d46576123f891600401612303565b60c4359073ffffffffffffffffffffffffffffffffffffffff82168203610d4657565b60e435908160020b8203610d4657565b907fffffffffffffffffffffffffffffffffffffffffffffffffffffffffffffffe0601f602080948051918291828752018686015e5f8582860101520116010190565b7ffffffffffffffffffffffffffffffffffffffffffffffffffffffffffffffffc6040910112610d46576004359060243590565b6101207ffffffffffffffffffffffffffffffffffffffffffffffffffffffffffffffffc820112610d465760043573ffffffffffffffffffffffffffffffffffffffff81168103610d46579160a07fffffffffffffffffffffffffffffffffffffffffffffffffffffffffffffffdc830112610d465760249160c4359160e43591610104359067ffffffffffffffff8211610d46576123f891600401612303565b6060810190811067ffffffffffffffff82111761263457604052565b7f4e487b71000000000000000000000000000000000000000000000000000000005f52604160045260245ffd5b60a0810190811067ffffffffffffffff82111761263457604052565b90601f7fffffffffffffffffffffffffffffffffffffffffffffffffffffffffffffffe0910116810190811067ffffffffffffffff82111761263457604052565b67ffffffffffffffff811161263457601f017fffffffffffffffffffffffffffffffffffffffffffffffffffffffffffffffe01660200190565b7fffffffffffffffffffffffffffffffffffffffffffffffffffffffffffffffdc60a0910112610d46576040519061272f82612661565b8160243573ffffffffffffffffffffffffffffffffffffffff81168103610d4657815260443573ffffffffffffffffffffffffffffffffffffffff81168103610d4657602082015260643562ffffff81168103610d465760408201526084358060020b8103610d4657606082015260a4359073ffffffffffffffffffffffffffffffffffffffff82168203610d465760800152565b519073ffffffffffffffffffffffffffffffffffffffff82168203610d4657565b90816020910312610d4657518015158103610d465790565b90816020910312610d46575190565b60c4358015158103610d465790565b600f0b7fffffffffffffffffffffffffffffffff800000000000000000000000000000008114612061575f0390565b9190820180921161206157565b906fffffffffffffffffffffffffffffffff809116911601906fffffffffffffffffffffffffffffffff821161206157565b9061289390613636565b600381018091116120615773ffffffffffffffffffffffffffffffffffffffff91602460209260405194859384927f1e2eaeaf0000000000000000000000000000000000000000000000000000000084526004840152165afa8015611640575f90612910575b6fffffffffffffffffffffffffffffffff91501690565b506020813d60201161294a575b8161292a6020938361267d565b81010312610d46576fffffffffffffffffffffffffffffffff90516128f9565b3d915061291d565b73ffffffffffffffffffffffffffffffffffffffff7f000000000000000000000000000000000000000000000000000000000000000016330361299157565b7ff655705d000000000000000000000000000000000000000000000000000000005f5260045ffd5b600581027fffffffffffffffffffffffffffffffffffffffffffffffffffffffffffffffff600583098180821091039080820391826127101115610d465714612a375761271060057fbc01a36e2eb1c432ca57a786c226809d495182a9930be0ded288ce703afb7e91940990828211900360fc1b910360041c170290565b5061271091500490565b90808202917fffffffffffffffffffffffffffffffffffffffffffffffffffffffffffffffff828209918380841093039280840393846c010000000000000000000000001115610d465714612ab2576c01000000000000000000000000910990828211900360a01b910360601c1790565b50505060601c90565b908160601b907fffffffffffffffffffffffffffffffffffffffffffffffffffffffffffffffff6c01000000000000000000000000840992828085109403938085039485841115610d465714612b6d576c0100000000000000000000000082910981805f03168092046002816003021880820260020302808202600203028082026002030280820260020302808202600203028091026002030293600183805f03040190848311900302920304170290565b5091500490565b8060601b907fffffffffffffffffffffffffffffffffffffffffffffffffffffffffffffffff6c01000000000000000000000000820982808210910381810360011115610d465714612bd7576c0100000000000000000000000060019109900390565b5090565b670de0b6b3a76400008102907fffffffffffffffffffffffffffffffffffffffffffffffffffffffffffffffff670de0b6b3a76400008209908280831092039180830392836c010000000000000000000000001115610d465714612c6457670de0b6b3a76400006c01000000000000000000000000910990828211900360a01b910360601c1790565b505060601c90565b90670de0b6b3a76400008202907fffffffffffffffffffffffffffffffffffffffffffffffffffffffffffffffff670de0b6b3a7640000840992828085109403938085039485841115610d465714612b6d57670de0b6b3a764000082910981805f03168092046002816003021880820260020302808202600203028082026002030280820260020302808202600203028091026002030293600183805f03040190848311900302920304170290565b818102907fffffffffffffffffffffffffffffffffffffffffffffffffffffffffffffffff83820990828083109203918083039283670de0b6b3a76400001115610d465714612da4577faccb18165bd6fe31ae1cf318dc5b51eee0e1ba569b88cd74c1773b91fac1066993670de0b6b3a7640000910990828211900360ee1b910360121c170290565b5050670de0b6b3a764000091500490565b8060601b7fffffffffffffffffffffffffffffffffffffffffffffffffffffffffffffffff6c010000000000000000000000008309818082109103908082039182670de0b6b3a76400001115610d465714612e5757670de0b6b3a76400006c010000000000000000000000007faccb18165bd6fe31ae1cf318dc5b51eee0e1ba569b88cd74c1773b91fac10669940990828211900360ee1b910360121c170290565b50670de0b6b3a764000091500490565b818102907fffffffffffffffffffffffffffffffffffffffffffffffffffffffffffffffff83820990828083109203918083039283671bc16d674ec800001115610d465714612ef0577faccb18165bd6fe31ae1cf318dc5b51eee0e1ba569b88cd74c1773b91fac1066993671bc16d674ec80000910990828211900360ed1b910360131c170290565b5050671bc16d674ec8000091500490565b818102907fffffffffffffffffffffffffffffffffffffffffffffffffffffffffffffffff838209908280831092039180830392836729a2241af62c00001115610d465714612f8a577fe443b2b21e9cff65e4b451084973c5fa4af5e8c7892d99d195d26930a8eb0223936729a2241af62c0000910990828211900360ee1b910360121c170290565b50506729a2241af62c000091500490565b818102907fffffffffffffffffffffffffffffffffffffffffffffffffffffffffffffffff83820990828083109203918083039283673782dace9d9000001115610d465714613024577faccb18165bd6fe31ae1cf318dc5b51eee0e1ba569b88cd74c1773b91fac1066993673782dace9d900000910990828211900360ec1b910360141c170290565b5050673782dace9d90000091500490565b818102907fffffffffffffffffffffffffffffffffffffffffffffffffffffffffffffffff83820990828083109203918083039283674563918244f400001115610d4657146130be577fef5bd19e125e32d6bc6c309e9278a9fc93605877b8b4f5e426b172506559ce1593674563918244f40000910990828211900360ee1b910360121c170290565b5050674563918244f4000091500490565b818102907fffffffffffffffffffffffffffffffffffffffffffffffffffffffffffffffff838209908280831092039180830392836753444835ec5800001115610d465714613158577fe443b2b21e9cff65e4b451084973c5fa4af5e8c7892d99d195d26930a8eb0223936753444835ec580000910990828211900360ed1b910360131c170290565b50506753444835ec58000091500490565b91818302917fffffffffffffffffffffffffffffffffffffffffffffffffffffffffffffffff81850993838086109503948086039586851115610d465714613200579082910981805f03168092046002816003021880820260020302808202600203028082026002030280820260020302808202600203028091026002030293600183805f03040190848311900302920304170290565b505091500490565b9190820391821161206157565b9290935f905f916fffffffffffffffffffffffffffffffff87169384159687801561362e575b80156135f9575b6135e95773ffffffffffffffffffffffffffffffffffffffff16956fffffffffffffffffffffffffffffffff1691821561352a57506fffffffffffffffffffffffffffffffff169283156134a757506132c66132bb6132ae846132a8816132a88b612bdb565b96612c6c565b6132c06132bb8288612c6c565b61365c565b95612d1b565b927f7fffffffffffffffffffffffffffffffffffffffffffffffffffffffffffffff8416840361206157670de0b6b3a7640000830292808404670de0b6b3a7640000149015171561206157670de0b6b3a7640000850292858404670de0b6b3a7640000148817156120615761335a6133cf9461335f9273ffffffffffffffffffffffffffffffffffffffff9760011b613169565b6136cf565b8183101561336d838561284a565b91811561349357613387906133828587613208565b612d1b565b925b61339d6133968685612d1b565b9185612d1b565b9115613457576133b89293916133b29161284a565b9261284a565b905b8115613450576133ca9250612c6c565b612db5565b1692828410613434577bffffffffffffffffffffffffffffffff0000000000000000000000005f9560601b169182046c01000000000000000000000000141715612061578161342b846134256134319582613208565b92612a41565b91613169565b92565b5061344d91949350613447835f96613208565b90612a41565b91565b5050612db5565b908082111561348a5761346991613208565b91808211156134815761347b91613208565b906133ba565b5050600161347b565b5060011c613469565b6134a1906133828686613208565b92613389565b9795508496506134f792506132bb91506134e1846134db8773ffffffffffffffffffffffffffffffffffffffff9798612a41565b92612abb565b80821115613521576134f291613208565b612b74565b1692838111613509575b50505f929190565b6135199294508361344791613208565b915f80613501565b5060011c612b74565b96935073ffffffffffffffffffffffffffffffffffffffff925061357c91506134f26132bb91613576876fffffffffffffffffffffffffffffffff61356f8b80612a41565b9316612abb565b9061284a565b1694838611613590575b50505050915f9190565b7bffffffffffffffffffffffffffffffff000000000000000000000000919293945060601b169182046c01000000000000000000000000141715612061578161342b846134256135e09582613208565b5f808080613586565b9750505050505050505f915f9190565b506fffffffffffffffffffffffffffffffff871615801561324257506fffffffffffffffffffffffffffffffff821615613242565b50831561323b565b60405160208101918252600660408201526040815261365660608261267d565b51902090565b9081156136ca57600182018083116120615760011c825b83821061367e575050565b90925082801561369d578061369491830461284a565b60011c90613673565b7f4e487b71000000000000000000000000000000000000000000000000000000005f52601260045260245ffd5b5f9150565b80156137d4575f905b670de0b6b3a7640000811161377e575b670de0b6b3a7640000818101809111612061576135768261375261374b8261374561373e826137386137318261372b613724826137589f612e67565b809d61284a565b9b612f01565b809a61284a565b98612f9b565b809761284a565b95613035565b809461284a565b926130cf565b905f905b80821061376857505090565b909161377681600192612d1b565b92019061375c565b600181018091116120615760011c907fffffffffffffffffffffffffffffffffffffffffffffffffffffffffffffffff81146120615760010190603c8211156136d8575050670de0b6b3a7640000603c906136e8565b50670de0b6b3a76400009056fea26469706673582212209c692f5809b9a57facd6919963a5021249ad319709ecee4b0a7e0f38cac3b89064736f6c634300081a0033","linkReferences":{}},"methodIdentifiers":{"LP_REBATE_BPS()":"cd52edad","MAX_ORDER_DELAY()":"32cfb815","MIN_ORDER_DELAY()":"71aedf72","afterAddLiquidity(address,(address,address,uint24,int24,address),(int24,int24,int256,bytes32),int256,int256,bytes)":"9f063efc","afterDonate(address,(address,address,uint24,int24,address),uint256,uint256,bytes)":"e1b4af69","afterInitialize(address,(address,address,uint24,int24,address),uint160,int24)":"6fe7e6eb","afterRemoveLiquidity(address,(address,address,uint24,int24,address),(int24,int24,int256,bytes32),int256,int256,bytes)":"6c2bbe7e","afterSwap(address,(address,address,uint24,int24,address),(bool,int256,uint160),int256,bytes)":"b47b2fb1","beforeAddLiquidity(address,(address,address,uint24,int24,address),(int24,int24,int256,bytes32),bytes)":"259982e5","beforeDonate(address,(address,address,uint24,int24,address),uint256,uint256,bytes)":"b6a8b0fa","beforeInitialize(address,(address,address,uint24,int24,address),uint160)":"dc98354e","beforeRemoveLiquidity(address,(address,address,uint24,int24,address),(int24,int24,int256,bytes32),bytes)":"21d0ee70","beforeSwap(address,(address,address,uint24,int24,address),(bool,int256,uint160),bytes)":"575e24b4","cancelOrder(bytes32,bytes32)":"a47d9d33","commitOrder(bytes32,bytes32,uint64)":"4d767e69","distributeLPRebate(bytes32)":"50f81c52","getCommitment(bytes32,bytes32)":"c19cc87a","lpRebateAccrued(bytes32)":"437b0e9a","pendingSells(bytes32)":"1b2ad62a","poolManager()":"dc4c90d3","revealOrder(bytes32,bytes32,uint128,bool,bytes32,uint256[2],uint256[2][2],uint256[2])":"b6c3b5f8","settlement()":"51160630","unlockCallback(bytes)":"91dd7346","verifier()":"2b7ac3f3"},"id":68}