{"abi":[{"type":"constructor","inputs":[{"name":"_poolManager","type":"address","internalType":"contract IPoolManager"},{"name":"_verifier","type":"address","internalType":"contract IZKVerifier"},{"name":"_settlement","type":"address","internalType":"contract TWAMMSettlement"}],"stateMutability":"nonpayable"},{"type":"function","name":"LP_REBATE_BPS","inputs":[],"outputs":[{"name":"","type":"uint256","internalType":"uint256"}],"stateMutability":"view"},{"type":"function","name":"MAX_ORDER_DELAY","inputs":[],"outputs":[{"name":"","type":"uint64","internalType":"uint64"}],"stateMutability":"view"},{"type":"function","name":"MIN_ORDER_DELAY","inputs":[],"outputs":[{"name":"","type":"uint64","internalType":"uint64"}],"stateMutability":"view"},{"type":"function","name":"afterAddLiquidity","inputs":[{"name":"","type":"address","internalType":"address"},{"name":"","type":"tuple","internalType":"struct PoolKey","components":[{"name":"currency0","type":"address","internalType":"Currency"},{"name":"currency1","type":"address","internalType":"Currency"},{"name":"fee","type":"uint24","internalType":"uint24"},{"name":"tickSpacing","type":"int24","internalType":"int24"},{"name":"hooks","type":"address","internalType":"contract IHooks"}]},{"name":"","type":"tuple","internalType":"struct ModifyLiquidityParams","components":[{"name":"tickLower","type":"int24","internalType":"int24"},{"name":"tickUpper","type":"int24","internalType":"int24"},{"name":"liquidityDelta","type":"int256","internalType":"int256"},{"name":"salt","type":"bytes32","internalType":"bytes32"}]},{"name":"","type":"int256","internalType":"BalanceDelta"},{"name":"","type":"int256","internalType":"BalanceDelta"},{"name":"","type":"bytes","internalType":"bytes"}],"outputs":[{"name":"","type":"bytes4","internalType":"bytes4"},{"name":"","type":"int256","internalType":"BalanceDelta"}],"stateMutability":"pure"},{"type":"function","name":"afterDonate","inputs":[{"name":"","type":"address","internalType":"address"},{"name":"","type":"tuple","internalType":"struct PoolKey","components":[{"name":"currency0","type":"address","internalType":"Currency"},{"name":"currency1","type":"address","internalType":"Currency"},{"name":"fee","type":"uint24","internalType":"uint24"},{"name":"tickSpacing","type":"int24","internalType":"int24"},{"name":"hooks","type":"address","internalType":"contract IHooks"}]},{"name":"","type":"uint256","internalType":"uint256"},{"name":"","type":"uint256","internalType":"uint256"},{"name":"","type":"bytes","internalType":"bytes"}],"outputs":[{"name":"","type":"bytes4","internalType":"bytes4"}],"stateMutability":"pure"},{"type":"function","name":"afterInitialize","inputs":[{"name":"","type":"address","internalType":"address"},{"name":"","type":"tuple","internalType":"struct PoolKey","components":[{"name":"currency0","type":"address","internalType":"Currency"},{"name":"currency1","type":"address","internalType":"Currency"},{"name":"fee","type":"uint24","internalType":"uint24"},{"name":"tickSpacing","type":"int24","internalType":"int24"},{"name":"hooks","type":"address","internalType":"contract IHooks"}]},{"name":"","type":"uint160","internalType":"uint160"},{"name":"","type":"int24","internalType":"int24"}],"outputs":[{"name":"","type":"bytes4","internalType":"bytes4"}],"stateMutability":"pure"},{"type":"function","name":"afterRemoveLiquidity","inputs":[{"name":"","type":"address","internalType":"address"},{"name":"","type":"tuple","internalType":"struct PoolKey","components":[{"name":"currency0","type":"address","internalType":"Currency"},{"name":"currency1","type":"address","internalType":"Currency"},{"name":"fee","type":"uint24","internalType":"uint24"},{"name":"tickSpacing","type":"int24","internalType":"int24"},{"name":"hooks","type":"address","internalType":"contract IHooks"}]},{"name":"","type":"tuple","internalType":"struct ModifyLiquidityParams","components":[{"name":"tickLower","type":"int24","internalType":"int24"},{"name":"tickUpper","type":"int24","internalType":"int24"},{"name":"liquidityDelta","type":"int256","internalType":"int256"},{"name":"salt","type":"bytes32","internalType":"bytes32"}]},{"name":"","type":"int256","internalType":"BalanceDelta"},{"name":"","type":"int256","internalType":"BalanceDelta"},{"name":"","type":"bytes","internalType":"bytes"}],"outputs":[{"name":"","type":"bytes4","internalType":"bytes4"},{"name":"","type":"int256","internalType":"BalanceDelta"}],"stateMutability":"pure"},{"type":"function","name":"afterSwap","inputs":[{"name":"","type":"address","internalType":"address"},{"name":"key","type":"tuple","internalType":"struct PoolKey","components":[{"name":"currency0","type":"address","internalType":"Currency"},{"name":"currency1","type":"address","internalType":"Currency"},{"name":"fee","type":"uint24","internalType":"uint24"},{"name":"tickSpacing","type":"int24","internalType":"int24"},{"name":"hooks","type":"address","internalType":"contract IHooks"}]},{"name":"params","type":"tuple","internalType":"struct SwapParams","components":[{"name":"zeroForOne","type":"bool","internalType":"bool"},{"name":"amountSpecified","type":"int256","internalType":"int256"},{"name":"sqrtPriceLimitX96","type":"uint160","internalType":"uint160"}]},{"name":"delta","type":"int256","internalType":"BalanceDelta"},{"name":"","type":"bytes","internalType":"bytes"}],"outputs":[{"name":"","type":"bytes4","internalType":"bytes4"},{"name":"","type":"int128","internalType":"int128"}],"stateMutability":"nonpayable"},{"type":"function","name":"beforeAddLiquidity","inputs":[{"name":"","type":"address","internalType":"address"},{"name":"","type":"tuple","internalType":"struct PoolKey","components":[{"name":"currency0","type":"address","internalType":"Currency"},{"name":"currency1","type":"address","internalType":"Currency"},{"name":"fee","type":"uint24","internalType":"uint24"},{"name":"tickSpacing","type":"int24","internalType":"int24"},{"name":"hooks","type":"address","internalType":"contract IHooks"}]},{"name":"","type":"tuple","internalType":"struct ModifyLiquidityParams","components":[{"name":"tickLower","type":"int24","internalType":"int24"},{"name":"tickUpper","type":"int24","internalType":"int24"},{"name":"liquidityDelta","type":"int256","internalType":"int256"},{"name":"salt","type":"bytes32","internalType":"bytes32"}]},{"name":"","type":"bytes","internalType":"bytes"}],"outputs":[{"name":"","type":"bytes4","internalType":"bytes4"}],"stateMutability":"pure"},{"type":"function","name":"beforeDonate","inputs":[{"name":"","type":"address","internalType":"address"},{"name":"","type":"tuple","internalType":"struct PoolKey","components":[{"name":"currency0","type":"address","internalType":"Currency"},{"name":"currency1","type":"address","internalType":"Currency"},{"name":"fee","type":"uint24","internalType":"uint24"},{"name":"tickSpacing","type":"int24","internalType":"int24"},{"name":"hooks","type":"address","internalType":"contract IHooks"}]},{"name":"","type":"uint256","internalType":"uint256"},{"name":"","type":"uint256","internalType":"uint256"},{"name":"","type":"bytes","internalType":"bytes"}],"outputs":[{"name":"","type":"bytes4","internalType":"bytes4"}],"stateMutability":"pure"},{"type":"function","name":"beforeInitialize","inputs":[{"name":"","type":"address","internalType":"address"},{"name":"","type":"tuple","internalType":"struct PoolKey","components":[{"name":"currency0","type":"address","internalType":"Currency"},{"name":"currency1","type":"address","internalType":"Currency"},{"name":"fee","type":"uint24","internalType":"uint24"},{"name":"tickSpacing","type":"int24","internalType":"int24"},{"name":"hooks","type":"address","internalType":"contract IHooks"}]},{"name":"","type":"uint160","internalType":"uint160"}],"outputs":[{"name":"","type":"bytes4","internalType":"bytes4"}],"stateMutability":"pure"},{"type":"function","name":"beforeRemoveLiquidity","inputs":[{"name":"","type":"address","internalType":"address"},{"name":"","type":"tuple","internalType":"struct PoolKey","components":[{"name":"currency0","type":"address","internalType":"Currency"},{"name":"currency1","type":"address","internalType":"Currency"},{"name":"fee","type":"uint24","internalType":"uint24"},{"name":"tickSpacing","type":"int24","internalType":"int24"},{"name":"hooks","type":"address","internalType":"contract IHooks"}]},{"name":"","type":"tuple","internalType":"struct ModifyLiquidityParams","components":[{"name":"tickLower","type":"int24","internalType":"int24"},{"name":"tickUpper","type":"int24","internalType":"int24"},{"name":"liquidityDelta","type":"int256","internalType":"int256"},{"name":"salt","type":"bytes32","internalType":"bytes32"}]},{"name":"","type":"bytes","internalType":"bytes"}],"outputs":[{"name":"","type":"bytes4","internalType":"bytes4"}],"stateMutability":"pure"},{"type":"function","name":"beforeSwap","inputs":[{"name":"","type":"address","internalType":"address"},{"name":"key","type":"tuple","internalType":"struct PoolKey","components":[{"name":"currency0","type":"address","internalType":"Currency"},{"name":"currency1","type":"address","internalType":"Currency"},{"name":"fee","type":"uint24","internalType":"uint24"},{"name":"tickSpacing","type":"int24","internalType":"int24"},{"name":"hooks","type":"address","internalType":"contract IHooks"}]},{"name":"","type":"tuple","internalType":"struct SwapParams","components":[{"name":"zeroForOne","type":"bool","internalType":"bool"},{"name":"amountSpecified","type":"int256","internalType":"int256"},{"name":"sqrtPriceLimitX96","type":"uint160","internalType":"uint160"}]},{"name":"","type":"bytes","internalType":"bytes"}],"outputs":[{"name":"","type":"bytes4","internalType":"bytes4"},{"name":"","type":"int256","internalType":"BeforeSwapDelta"},{"name":"","type":"uint24","internalType":"uint24"}],"stateMutability":"nonpayable"},{"type":"function","name":"cancelOrder","inputs":[{"name":"poolId","type":"bytes32","internalType":"PoolId"},{"name":"commitmentId","type":"bytes32","internalType":"bytes32"}],"outputs":[],"stateMutability":"nonpayable"},{"type":"function","name":"commitOrder","inputs":[{"name":"poolId","type":"bytes32","internalType":"PoolId"},{"name":"hash","type":"bytes32","internalType":"bytes32"},{"name":"delay","type":"uint64","internalType":"uint64"}],"outputs":[{"name":"commitmentId","type":"bytes32","internalType":"bytes32"}],"stateMutability":"nonpayable"},{"type":"function","name":"distributeLPRebate","inputs":[{"name":"poolId","type":"bytes32","internalType":"PoolId"}],"outputs":[],"stateMutability":"nonpayable"},{"type":"function","name":"getCommitment","inputs":[{"name":"poolId","type":"bytes32","internalType":"PoolId"},{"name":"commitmentId","type":"bytes32","internalType":"bytes32"}],"outputs":[{"name":"","type":"tuple","internalType":"struct ITWAMMXHook.Commitment","components":[{"name":"hash","type":"bytes32","internalType":"bytes32"},{"name":"expiry","type":"uint64","internalType":"uint64"},{"name":"revealed","type":"bool","internalType":"bool"}]}],"stateMutability":"view"},{"type":"function","name":"lpRebateAccrued","inputs":[{"name":"poolId","type":"bytes32","internalType":"PoolId"}],"outputs":[{"name":"amount0","type":"uint256","internalType":"uint256"},{"name":"amount1","type":"uint256","internalType":"uint256"}],"stateMutability":"view"},{"type":"function","name":"pendingSells","inputs":[{"name":"poolId","type":"bytes32","internalType":"PoolId"}],"outputs":[{"name":"sell0","type":"uint128","internalType":"uint128"},{"name":"sell1","type":"uint128","internalType":"uint128"}],"stateMutability":"view"},{"type":"function","name":"poolManager","inputs":[],"outputs":[{"name":"","type":"address","internalType":"contract IPoolManager"}],"stateMutability":"view"},{"type":"function","name":"reactiveDistributeRebate","inputs":[{"name":"poolId","type":"bytes32","internalType":"bytes32"}],"outputs":[],"stateMutability":"nonpayable"},{"type":"function","name":"revealOrder","inputs":[{"name":"poolId","type":"bytes32","internalType":"PoolId"},{"name":"commitmentId","type":"bytes32","internalType":"bytes32"},{"name":"amountIn","type":"uint128","internalType":"uint128"},{"name":"zeroForOne","type":"bool","internalType":"bool"},{"name":"salt","type":"bytes32","internalType":"bytes32"},{"name":"pA","type":"uint256[2]","internalType":"uint256[2]"},{"name":"pB","type":"uint256[2][2]","internalType":"uint256[2][2]"},{"name":"pC","type":"uint256[2]","internalType":"uint256[2]"}],"outputs":[],"stateMutability":"nonpayable"},{"type":"function","name":"settlement","inputs":[],"outputs":[{"name":"","type":"address","internalType":"contract TWAMMSettlement"}],"stateMutability":"view"},{"type":"function","name":"unlockCallback","inputs":[{"name":"data","type":"bytes","internalType":"bytes"}],"outputs":[{"name":"","type":"bytes","internalType":"bytes"}],"stateMutability":"nonpayable"},{"type":"function","name":"verifier","inputs":[],"outputs":[{"name":"","type":"address","internalType":"contract IZKVerifier"}],"stateMutability":"view"},{"type":"event","name":"BatchExecuted","inputs":[{"name":"poolId","type":"bytes32","indexed":true,"internalType":"PoolId"},{"name":"sell0Executed","type":"uint128","indexed":false,"internalType":"uint128"},{"name":"sell1Executed","type":"uint128","indexed":false,"internalType":"uint128"},{"name":"twapPrice","type":"uint256","indexed":false,"internalType":"uint256"}],"anonymous":false},{"type":"event","name":"LPRebateDistributed","inputs":[{"name":"poolId","type":"bytes32","indexed":true,"internalType":"PoolId"},{"name":"amount0","type":"uint256","indexed":false,"internalType":"uint256"},{"name":"amount1","type":"uint256","indexed":false,"internalType":"uint256"}],"anonymous":false},{"type":"event","name":"OrderCancelled","inputs":[{"name":"poolId","type":"bytes32","indexed":true,"internalType":"PoolId"},{"name":"commitmentId","type":"bytes32","indexed":true,"internalType":"bytes32"},{"name":"owner","type":"address","indexed":true,"internalType":"address"}],"anonymous":false},{"type":"event","name":"OrderCommitted","inputs":[{"name":"poolId","type":"bytes32","indexed":true,"internalType":"PoolId"},{"name":"commitmentId","type":"bytes32","indexed":true,"internalType":"bytes32"},{"name":"owner","type":"address","indexed":true,"internalType":"address"},{"name":"expiry","type":"uint64","indexed":false,"internalType":"uint64"}],"anonymous":false},{"type":"event","name":"OrderRevealed","inputs":[{"name":"poolId","type":"bytes32","indexed":true,"internalType":"PoolId"},{"name":"commitmentId","type":"bytes32","indexed":true,"internalType":"bytes32"},{"name":"amountIn","type":"uint128","indexed":false,"internalType":"uint128"},{"name":"zeroForOne","type":"bool","indexed":false,"internalType":"bool"}],"anonymous":false},{"type":"error","name":"CommitmentAlreadyRevealed","inputs":[]},{"type":"error","name":"CommitmentNotExpired","inputs":[]},{"type":"error","name":"CommitmentNotFound","inputs":[]},{"type":"error","name":"HashMismatch","inputs":[]},{"type":"error","name":"InvalidDelay","inputs":[]},{"type":"error","name":"InvalidProof","inputs":[]},{"type":"error","name":"NothingToDistribute","inputs":[]},{"type":"error","name":"OnlyPoolManager","inputs":[]},{"type":"error","name":"ZeroAmount","inputs":[]}],"bytecode":{"object":"0x60e0346100d957601f61395c38819003918201601f19168301916001600160401b038311848410176100dd578084926060946040528339810103126100d9578051906001600160a01b03821682036100d9576020810151906001600160a01b03821682036100d95760400151916001600160a01b03831683036100d95760805260a05260c05260405161386a90816100f2823960805181818161025301528181610b970152818161112e0152818161264e01526128f3015260a0518181816105730152611f01015260c0518181816106fc0152611b2d0152f35b5f80fd5b634e487b7160e01b5f52604160045260245ffdfe6080806040526004361015610012575f80fd5b5f905f3560e01c9081631b2ad62a14611f9f5750806321d0ee7014611f62578063259982e514611f255780632b7ac3f314611eb757806332cfb81514611e7c578063437b0e9a14611e245780634d767e6914611b8d57806350f81c5214611b515780635116063014611ae3578063575e24b4146117b05780636c2bbe7e1461176c5780636fe7e6eb146116cd57806371aedf721461169457806391dd7346146110c55780639f063efc1461107f578063a47d9d3314610f19578063b47b2fb1146109dc578063b6a8b0fa1461099d578063b6c3b5f81461037b578063c19cc87a146102ef578063cd52edad146102b5578063d088a77314610277578063dc4c90d314610208578063dc98354e146101725763e1b4af6914610131575f80fd5b3461016f5761013f366122b1565b50505050505060206040517fe1b4af69000000000000000000000000000000000000000000000000000000008152f35b80fd5b503461016f5760e07ffffffffffffffffffffffffffffffffffffffffffffffffffffffffffffffffc36011261016f576101aa61201a565b5060a07fffffffffffffffffffffffffffffffffffffffffffffffffffffffffffffffdc36011261016f576101dd612207565b5060206040517fdc98354e000000000000000000000000000000000000000000000000000000008152f35b503461016f57807ffffffffffffffffffffffffffffffffffffffffffffffffffffffffffffffffc36011261016f57602060405173ffffffffffffffffffffffffffffffffffffffff7f0000000000000000000000000000000000000000000000000000000000000000168152f35b503461016f5760207ffffffffffffffffffffffffffffffffffffffffffffffffffffffffffffffffc36011261016f576102b26004356125c3565b80f35b503461016f57807ffffffffffffffffffffffffffffffffffffffffffffffffffffffffffffffffc36011261016f57602060405160058152f35b503461016f5760406060916103033661227d565b908284805161031181612352565b82815282602082015201528252816020528282209082526020522060405161033881612352565b67ffffffffffffffff600183549384845201549160ff604060208301928486168452019360401c1615158352604051938452511660208301525115156040820152f35b503461016f576101a07ffffffffffffffffffffffffffffffffffffffffffffffffffffffffffffffffc36011261016f57600435602435906044356fffffffffffffffffffffffffffffffff8116908181036107d9576064359081151591828103610999573660e41161099957366101641161099957366101a411610999578487528660205260408720868852602052604087208054908115610971576001019081549060ff8260401c166109495767ffffffffffffffff82168042106109215787156108f957888b52600160205260408b208a8c526020528160408c20546040517fffffffffffffffffffffffffffffffffffffffff000000000000000000000000602082019260601b1682527fffffffffffffffffffffffffffffffff000000000000000000000000000000008960801b1660348201528960f81b60448201526084356045820152604581526104d46065826123b7565b519020036108d157604051916104e983612352565b82528860208301526040820152604051907f11479fea000000000000000000000000000000000000000000000000000000008252604060a4600484013760e48b604484015b600282106108bb57505050604061016460c48401378a61010483015b600382106108a5575050506020816101648173ffffffffffffffffffffffffffffffffffffffff7f0000000000000000000000000000000000000000000000000000000000000000165afa90811561089a578a9161086b575b5015610843577fffffffffffffffffffffffffffffffffffffffffffffff00ffffffffffffffff1668010000000000000000179055156107ec5783865260026020526fffffffffffffffffffffffffffffffff610607604088209282845416612591565b167fffffffffffffffffffffffffffffffff000000000000000000000000000000008254161790555b828552600760205284604081206040519061064a8261239b565b73ffffffffffffffffffffffffffffffffffffffff815416825273ffffffffffffffffffffffffffffffffffffffff6002600183015492828416602086015262ffffff8460a01c169384604087015260b81c820b606086015201541660808301526106e5575b50507f7b1e29dd3d528c671927241e1da9dda865af46bc4c423f6d735324e6b47db7679160409182519182526020820152a380f35b73ffffffffffffffffffffffffffffffffffffffff7f00000000000000000000000000000000000000000000000000000000000000001690813b156107e8576107b160e484928360405195869485937f5bde47f70000000000000000000000000000000000000000000000000000000085528d6004860152602485019073ffffffffffffffffffffffffffffffffffffffff6080809282815116855282602082015116602086015262ffffff6040820151166040860152606081015160020b6060860152015116910152565b8860c48401525af180156107dd57156106b057816107ce916123b7565b6107d957845f6106b0565b8480fd5b6040513d84823e3d90fd5b8280fd5b83865260036020526fffffffffffffffffffffffffffffffff610816604088209282845416612591565b167fffffffffffffffffffffffffffffffff00000000000000000000000000000000825416179055610630565b6004897f09bde339000000000000000000000000000000000000000000000000000000008152fd5b61088d915060203d602011610893575b61088581836123b7565b81019061251f565b5f6105a3565b503d61087b565b6040513d8c823e3d90fd5b602080600192855181520193019101909161054a565b604080828186600195370193019101909161052e565b60048b7f3f4d6053000000000000000000000000000000000000000000000000000000008152fd5b60048b7f1f2a2005000000000000000000000000000000000000000000000000000000008152fd5b60048b7fd475a053000000000000000000000000000000000000000000000000000000008152fd5b60048a7f8f3d672c000000000000000000000000000000000000000000000000000000008152fd5b6004897fb6682ad2000000000000000000000000000000000000000000000000000000008152fd5b8680fd5b503461016f576109ac366122b1565b50505050505060206040517fb6a8b0fa000000000000000000000000000000000000000000000000000000008152f35b503461016f576101607ffffffffffffffffffffffffffffffffffffffffffffffffffffffffffffffffc36011261016f57610a1561201a565b5060a07fffffffffffffffffffffffffffffffffffffffffffffffffffffffffffffffdc36011261016f5760607fffffffffffffffffffffffffffffffffffffffffffffffffffffffffffffff3c36011261016f5761012435906101443567ffffffffffffffff8111610f1557610a9090369060040161203d565b5050610a9a6128dc565b60a0610aa5366123f8565b2080825260026020526fffffffffffffffffffffffffffffffff6040832054169281835260036020526fffffffffffffffffffffffffffffffff604084205416908415801590610f0c575b15610dfd57508183526006602052604083205467ffffffffffffffff1680610da6575067ffffffffffffffff835b1680610b95575b505081526006602052604080822080547fffffffffffffffffffffffffffffffffffffffffffffffff0000000000000000164267ffffffffffffffff1617905591505b8151907fb47b2fb10000000000000000000000000000000000000000000000000000000082526020820152f35b7f0000000000000000000000000000000000000000000000000000000000000000610bbf84613689565b90604051917f1e2eaeaf000000000000000000000000000000000000000000000000000000008352600483015260208260248173ffffffffffffffffffffffffffffffffffffffff85165afa918215610d9b578692610d49575b509573ffffffffffffffffffffffffffffffffffffffff84610c717f83b566dca93fe71a74ddaebf58cb9c5b1700ed3be921ac3e7892ef36e668a8fc9588978560609786610c6a60409f8d90613192565b9116613268565b92919080610d22575b5080610cfb575b5086895260026020528989207fffffffffffffffffffffffffffffffff00000000000000000000000000000000815416905586895260036020528989207fffffffffffffffffffffffffffffffff000000000000000000000000000000008154169055895193845260208401521687820152a25f80610b25565b610d0490612943565b878a526004602052610d1a8b8b20918254612584565b90555f610c81565b610d2b90612943565b888b526005602052610d418c8c20918254612584565b90555f610c7a565b929150956020833d602011610d93575b81610d66602093836123b7565b81010312610d8f579151919590919073ffffffffffffffffffffffffffffffffffffffff610c19565b5f80fd5b3d9150610d59565b6040513d88823e3d90fd5b67ffffffffffffffff42160367ffffffffffffffff8111610dd05767ffffffffffffffff90610b1e565b6024847f4e487b710000000000000000000000000000000000000000000000000000000081526011600452fd5b60e4359450905082841215610ec657507f80000000000000000000000000000000000000000000000000000000000000008314610e995760409282035b80610e47575b5050610b68565b610e5090612943565b90610e59612546565b15610e7d5782526004602052610e73838320918254612584565b90555b5f80610e40565b82526005602052610e92838320918254612584565b9055610e76565b6024827f4e487b710000000000000000000000000000000000000000000000000000000081526011600452fd5b604093506fffffffffffffffffffffffffffffffff90610ee4612546565b15610efb57610ef59060801d612555565b16610e3a565b610f0790600f0b612555565b610ef5565b50811515610af0565b5080fd5b503461016f57610f283661227d565b818352826020526040832081845260205260408320805415611057576001015460401c60ff1661102f5781835260016020526040832081845260205273ffffffffffffffffffffffffffffffffffffffff6040842054163303611007578183528260205260408320818452602052826001604082208281550155818352600160205260408320818452602052604083207fffffffffffffffffffffffff0000000000000000000000000000000000000000815416905533917f2dbdb9f031c8fbcb8a51b5123a04ba32fa8e2cae5092517f0fa0a26a2c6bc88c8480a480f35b6004837fb6682ad2000000000000000000000000000000000000000000000000000000008152fd5b6004837f8f3d672c000000000000000000000000000000000000000000000000000000008152fd5b6004847fb6682ad2000000000000000000000000000000000000000000000000000000008152fd5b503461016f5760409061109136612136565b505050505050508151907f9f063efc0000000000000000000000000000000000000000000000000000000082526020820152f35b5034610d8f5760207ffffffffffffffffffffffffffffffffffffffffffffffffffffffffffffffffc360112610d8f5760043567ffffffffffffffff8111610d8f5761111590369060040161203d565b919073ffffffffffffffffffffffffffffffffffffffff7f00000000000000000000000000000000000000000000000000000000000000001692833303610d8f578101604082820312610d8f5781359160ff8316809303610d8f5760208101359067ffffffffffffffff8211610d8f570181601f82011215610d8f5780359261119d846124c4565b936111ab60405195866123b7565b808552602085019360208285010111610d8f576020815f92826001960187378601015214611201575b6111fd83604051906111e76020836123b7565b815260405191829160208352602083019061223a565b0390f35b81805181010360e08112610d8f5760a013610d8f5761122b604051916112268361239b565b6124fe565b9384825261123b604084016124fe565b60208301908152606084015162ffffff81168103610d8f57604084015260808401518060020b8103610d8f57606084015260a084015173ffffffffffffffffffffffffffffffffffffffff81168103610d8f57608084015260e060c08501519401519084611525575b85965081959495611395575b50916020936101249261133c9460405197889687957f234266d7000000000000000000000000000000000000000000000000000000008752600487019073ffffffffffffffffffffffffffffffffffffffff6080809282815116855282602082015116602086015262ffffff6040820151166040860152606081015160020b6060860152015116910152565b60a485015260c484015261010060e4840152816101048401525af180156107dd5761136a575b8082916111d4565b602090813d831161138e575b61138081836123b7565b8101031261016f575f611362565b503d611376565b909373ffffffffffffffffffffffffffffffffffffffff825116833b15610f1557604051907fa58411940000000000000000000000000000000000000000000000000000000082526004820152818160248183885af180156107dd5761150c575b5050516040517fa9059cbb00000000000000000000000000000000000000000000000000000000815273ffffffffffffffffffffffffffffffffffffffff8381166004830152602482018690529091602091839160449183918b91165af18015610d9b576114ef575b50604051917f11da60b40000000000000000000000000000000000000000000000000000000083528560208460048184875af19283156114e25760209561133c95610124956114b5575b509294509250936112b0565b6114d490883d8a116114db575b6114cc81836123b7565b810190612537565b505f6114a9565b503d6114c2565b50604051903d90823e3d90fd5b6115079060203d6020116108935761088581836123b7565b61145f565b81611516916123b7565b61152157855f6113f6565b8580fd5b823b15610d8f5773ffffffffffffffffffffffffffffffffffffffff604051977fa58411940000000000000000000000000000000000000000000000000000000089521660048801525f8760248183875af1801561168957611671575b83516040517fa9059cbb00000000000000000000000000000000000000000000000000000000815273ffffffffffffffffffffffffffffffffffffffff8581166004830152602482018890529798509596889691602091839160449183918b91165af18015610d9b57611654575b506040517f11da60b400000000000000000000000000000000000000000000000000000000815260208160048189885af18015610d9b57611635575b509493946112a4565b61164d9060203d6020116114db576114cc81836123b7565b505f61162c565b61166c9060203d6020116108935761088581836123b7565b6115f0565b939450945f61167f916123b7565b5f93928590611582565b6040513d5f823e3d90fd5b34610d8f575f7ffffffffffffffffffffffffffffffffffffffffffffffffffffffffffffffffc360112610d8f576020604051603c8152f35b34610d8f576101007ffffffffffffffffffffffffffffffffffffffffffffffffffffffffffffffffc360112610d8f5761170561201a565b5060a07fffffffffffffffffffffffffffffffffffffffffffffffffffffffffffffffdc360112610d8f57611738612207565b5061174161222a565b5060206040517f6fe7e6eb000000000000000000000000000000000000000000000000000000008152f35b34610d8f5761177a36612136565b50505050505050604080517f6c2bbe7e0000000000000000000000000000000000000000000000000000000081525f6020820152f35b34610d8f576101407ffffffffffffffffffffffffffffffffffffffffffffffffffffffffffffffffc360112610d8f576117e861201a565b5060a07fffffffffffffffffffffffffffffffffffffffffffffffffffffffffffffffdc360112610d8f5760607fffffffffffffffffffffffffffffffffffffffffffffffffffffffffffffff3c360112610d8f576101243567ffffffffffffffff8111610d8f5761185e90369060040161203d565b50506118686128dc565b60a0611873366123f8565b20805f52600760205262ffffff600160405f20015460a01c161561192a575b805f52600660205267ffffffffffffffff60405f205416156118e5575b60606040517f575e24b40000000000000000000000000000000000000000000000000000000081525f60208201525f6040820152f35b5f52600660205260405f2067ffffffffffffffff804216167fffffffffffffffffffffffffffffffffffffffffffffffff0000000000000000825416179055806118af565b805f52600760205260405f2060243573ffffffffffffffffffffffffffffffffffffffff81168103610d8f578073ffffffffffffffffffffffffffffffffffffffff9150167fffffffffffffffffffffffff00000000000000000000000000000000000000008254161781556001810160443573ffffffffffffffffffffffffffffffffffffffff81168103610d8f5781547fffffffffffffffffffffffff00000000000000000000000000000000000000001673ffffffffffffffffffffffffffffffffffffffff90911617815560643562ffffff81168103610d8f5781546084358060020b8103610d8f5776ffffff00000000000000000000000000000000000000007fffffffffffff000000000000ffffffffffffffffffffffffffffffffffffffff9160b81b79ffffff0000000000000000000000000000000000000000000000169360a01b1691161717905560a4359073ffffffffffffffffffffffffffffffffffffffff82168203610d8f57600273ffffffffffffffffffffffffffffffffffffffff910191167fffffffffffffffffffffffff0000000000000000000000000000000000000000825416179055611892565b34610d8f575f7ffffffffffffffffffffffffffffffffffffffffffffffffffffffffffffffffc360112610d8f57602060405173ffffffffffffffffffffffffffffffffffffffff7f0000000000000000000000000000000000000000000000000000000000000000168152f35b34610d8f5760207ffffffffffffffffffffffffffffffffffffffffffffffffffffffffffffffffc360112610d8f57611b8b6004356125c3565b005b34610d8f5760607ffffffffffffffffffffffffffffffffffffffffffffffffffffffffffffffffc360112610d8f576004356024359060443567ffffffffffffffff8116809103610d8f57603c81108015611e18575b611df0578215611dc85767ffffffffffffffff42160167ffffffffffffffff8111611d9b57602092604051848101903360601b82528260348201527fffffffffffffffff00000000000000000000000000000000000000000000000067ffffffffffffffff85169460c01b16605482015246605c820152605c8152611c69607c826123b7565b51902092839160405190611c7c82612352565b81528581019084825267ffffffffffffffff80600160408401935f8552865f525f8b5260405f20885f528b5260405f209051815501935116167fffffffffffffffffffffffffffffffffffffffffffffffff00000000000000008354161782555115157fffffffffffffffffffffffffffffffffffffffffffffff00ffffffffffffffff68ff000000000000000083549260401b169116179055805f526001855260405f20825f52855260405f2073ffffffffffffffffffffffffffffffffffffffff33167fffffffffffffffffffffffff00000000000000000000000000000000000000008254161790556040519283527f5344e3b9f99226aa980433e15d5dd7ea2340bc409069ed6523aabb5c4001840d853394a4604051908152f35b7f4e487b71000000000000000000000000000000000000000000000000000000005f52601160045260245ffd5b7f1f2a2005000000000000000000000000000000000000000000000000000000005f5260045ffd5b7f4fbe5dba000000000000000000000000000000000000000000000000000000005f5260045ffd5b5062093a808111611be3565b34610d8f5760207ffffffffffffffffffffffffffffffffffffffffffffffffffffffffffffffffc360112610d8f576040600435805f526004602052815f2054905f526005602052815f205482519182526020820152f35b34610d8f575f7ffffffffffffffffffffffffffffffffffffffffffffffffffffffffffffffffc360112610d8f57602060405162093a808152f35b34610d8f575f7ffffffffffffffffffffffffffffffffffffffffffffffffffffffffffffffffc360112610d8f57602060405173ffffffffffffffffffffffffffffffffffffffff7f0000000000000000000000000000000000000000000000000000000000000000168152f35b34610d8f57611f333661206b565b505050505060206040517f259982e5000000000000000000000000000000000000000000000000000000008152f35b34610d8f57611f703661206b565b505050505060206040517f21d0ee70000000000000000000000000000000000000000000000000000000008152f35b34610d8f5760207ffffffffffffffffffffffffffffffffffffffffffffffffffffffffffffffffc360112610d8f57604090600435805f5260026020526fffffffffffffffffffffffffffffffff835f205416905f5260036020526fffffffffffffffffffffffffffffffff835f2054169082526020820152f35b6004359073ffffffffffffffffffffffffffffffffffffffff82168203610d8f57565b9181601f84011215610d8f5782359167ffffffffffffffff8311610d8f5760208381860195010111610d8f57565b906101607ffffffffffffffffffffffffffffffffffffffffffffffffffffffffffffffffc830112610d8f5760043573ffffffffffffffffffffffffffffffffffffffff81168103610d8f579160a07fffffffffffffffffffffffffffffffffffffffffffffffffffffffffffffffdc820112610d8f5760249160807fffffffffffffffffffffffffffffffffffffffffffffffffffffffffffffff3c830112610d8f5760c491610144359067ffffffffffffffff8211610d8f576121329160040161203d565b9091565b906101a07ffffffffffffffffffffffffffffffffffffffffffffffffffffffffffffffffc830112610d8f5760043573ffffffffffffffffffffffffffffffffffffffff81168103610d8f579160a07fffffffffffffffffffffffffffffffffffffffffffffffffffffffffffffffdc820112610d8f5760249160807fffffffffffffffffffffffffffffffffffffffffffffffffffffffffffffff3c830112610d8f5760c49161014435916101643591610184359067ffffffffffffffff8211610d8f576121329160040161203d565b60c4359073ffffffffffffffffffffffffffffffffffffffff82168203610d8f57565b60e435908160020b8203610d8f57565b907fffffffffffffffffffffffffffffffffffffffffffffffffffffffffffffffe0601f602080948051918291828752018686015e5f8582860101520116010190565b7ffffffffffffffffffffffffffffffffffffffffffffffffffffffffffffffffc6040910112610d8f576004359060243590565b6101207ffffffffffffffffffffffffffffffffffffffffffffffffffffffffffffffffc820112610d8f5760043573ffffffffffffffffffffffffffffffffffffffff81168103610d8f579160a07fffffffffffffffffffffffffffffffffffffffffffffffffffffffffffffffdc830112610d8f5760249160c4359160e43591610104359067ffffffffffffffff8211610d8f576121329160040161203d565b6060810190811067ffffffffffffffff82111761236e57604052565b7f4e487b71000000000000000000000000000000000000000000000000000000005f52604160045260245ffd5b60a0810190811067ffffffffffffffff82111761236e57604052565b90601f7fffffffffffffffffffffffffffffffffffffffffffffffffffffffffffffffe0910116810190811067ffffffffffffffff82111761236e57604052565b7fffffffffffffffffffffffffffffffffffffffffffffffffffffffffffffffdc60a0910112610d8f576040519061242f8261239b565b8160243573ffffffffffffffffffffffffffffffffffffffff81168103610d8f57815260443573ffffffffffffffffffffffffffffffffffffffff81168103610d8f57602082015260643562ffffff81168103610d8f5760408201526084358060020b8103610d8f57606082015260a4359073ffffffffffffffffffffffffffffffffffffffff82168203610d8f5760800152565b67ffffffffffffffff811161236e57601f017fffffffffffffffffffffffffffffffffffffffffffffffffffffffffffffffe01660200190565b519073ffffffffffffffffffffffffffffffffffffffff82168203610d8f57565b90816020910312610d8f57518015158103610d8f5790565b90816020910312610d8f575190565b60c4358015158103610d8f5790565b600f0b7fffffffffffffffffffffffffffffffff800000000000000000000000000000008114611d9b575f0390565b91908201809211611d9b57565b906fffffffffffffffffffffffffffffffff809116911601906fffffffffffffffffffffffffffffffff8211611d9b57565b805f52600460205260405f2054815f52600560205260405f20548115806128d4575b6128ac57825f52600760205260405f2073ffffffffffffffffffffffffffffffffffffffff6002604051926126198461239b565b8281541684526001810154838116602086015262ffffff8160a01c16604086015260b81c820b606085015201541660808201527f00000000000000000000000000000000000000000000000000000000000000006fffffffffffffffffffffffffffffffff6126888683613192565b16156128ac576127c95f9161275f61278b73ffffffffffffffffffffffffffffffffffffffff958986526004602052856040812055898652600560205285604081205561272660405191602083019073ffffffffffffffffffffffffffffffffffffffff6080809282815116855282602082015116602086015262ffffff6040820151166040860152606081015160020b6060860152015116910152565b8860c08201528760e082015260e08152612742610100826123b7565b60405192839160016020840152604080840152606083019061223a565b037fffffffffffffffffffffffffffffffffffffffffffffffffffffffffffffffe081018352826123b7565b836040519586809581947f48c8949100000000000000000000000000000000000000000000000000000000835260206004840152602483019061223a565b0393165af180156116895761280c575b507ff79fcab775ff06656951a5e126f4adec555daaefe25e486ddc6938750fa84d289160409182519182526020820152a2565b913d805f853e61281c81856123b7565b830192602081850312610d8f5780519067ffffffffffffffff8211610d8f57019183601f84011215610d8f57825193612854856124c4565b9061286260405192836123b7565b85825260208686010111610d8f575f6020867ff79fcab775ff06656951a5e126f4adec555daaefe25e486ddc6938750fa84d289782604098018386015e83010152509150916127d9565b7f01663f24000000000000000000000000000000000000000000000000000000005f5260045ffd5b5080156125e5565b73ffffffffffffffffffffffffffffffffffffffff7f000000000000000000000000000000000000000000000000000000000000000016330361291b57565b7ff655705d000000000000000000000000000000000000000000000000000000005f5260045ffd5b600581027fffffffffffffffffffffffffffffffffffffffffffffffffffffffffffffffff600583098180821091039080820391826127101115610d8f57146129c15761271060057fbc01a36e2eb1c432ca57a786c226809d495182a9930be0ded288ce703afb7e91940990828211900360fc1b910360041c170290565b5061271091500490565b90808202917fffffffffffffffffffffffffffffffffffffffffffffffffffffffffffffffff828209918380841093039280840393846c010000000000000000000000001115610d8f5714612a3c576c01000000000000000000000000910990828211900360a01b910360601c1790565b50505060601c90565b908160601b907fffffffffffffffffffffffffffffffffffffffffffffffffffffffffffffffff6c01000000000000000000000000840992828085109403938085039485841115610d8f5714612af7576c0100000000000000000000000082910981805f03168092046002816003021880820260020302808202600203028082026002030280820260020302808202600203028091026002030293600183805f03040190848311900302920304170290565b5091500490565b8060601b907fffffffffffffffffffffffffffffffffffffffffffffffffffffffffffffffff6c01000000000000000000000000820982808210910381810360011115610d8f5714612b61576c0100000000000000000000000060019109900390565b5090565b670de0b6b3a76400008102907fffffffffffffffffffffffffffffffffffffffffffffffffffffffffffffffff670de0b6b3a76400008209908280831092039180830392836c010000000000000000000000001115610d8f5714612bee57670de0b6b3a76400006c01000000000000000000000000910990828211900360a01b910360601c1790565b505060601c90565b90670de0b6b3a76400008202907fffffffffffffffffffffffffffffffffffffffffffffffffffffffffffffffff670de0b6b3a7640000840992828085109403938085039485841115610d8f5714612af757670de0b6b3a764000082910981805f03168092046002816003021880820260020302808202600203028082026002030280820260020302808202600203028091026002030293600183805f03040190848311900302920304170290565b818102907fffffffffffffffffffffffffffffffffffffffffffffffffffffffffffffffff83820990828083109203918083039283670de0b6b3a76400001115610d8f5714612d2e577faccb18165bd6fe31ae1cf318dc5b51eee0e1ba569b88cd74c1773b91fac1066993670de0b6b3a7640000910990828211900360ee1b910360121c170290565b5050670de0b6b3a764000091500490565b8060601b7fffffffffffffffffffffffffffffffffffffffffffffffffffffffffffffffff6c010000000000000000000000008309818082109103908082039182670de0b6b3a76400001115610d8f5714612de157670de0b6b3a76400006c010000000000000000000000007faccb18165bd6fe31ae1cf318dc5b51eee0e1ba569b88cd74c1773b91fac10669940990828211900360ee1b910360121c170290565b50670de0b6b3a764000091500490565b818102907fffffffffffffffffffffffffffffffffffffffffffffffffffffffffffffffff83820990828083109203918083039283671bc16d674ec800001115610d8f5714612e7a577faccb18165bd6fe31ae1cf318dc5b51eee0e1ba569b88cd74c1773b91fac1066993671bc16d674ec80000910990828211900360ed1b910360131c170290565b5050671bc16d674ec8000091500490565b818102907fffffffffffffffffffffffffffffffffffffffffffffffffffffffffffffffff838209908280831092039180830392836729a2241af62c00001115610d8f5714612f14577fe443b2b21e9cff65e4b451084973c5fa4af5e8c7892d99d195d26930a8eb0223936729a2241af62c0000910990828211900360ee1b910360121c170290565b50506729a2241af62c000091500490565b818102907fffffffffffffffffffffffffffffffffffffffffffffffffffffffffffffffff83820990828083109203918083039283673782dace9d9000001115610d8f5714612fae577faccb18165bd6fe31ae1cf318dc5b51eee0e1ba569b88cd74c1773b91fac1066993673782dace9d900000910990828211900360ec1b910360141c170290565b5050673782dace9d90000091500490565b818102907fffffffffffffffffffffffffffffffffffffffffffffffffffffffffffffffff83820990828083109203918083039283674563918244f400001115610d8f5714613048577fef5bd19e125e32d6bc6c309e9278a9fc93605877b8b4f5e426b172506559ce1593674563918244f40000910990828211900360ee1b910360121c170290565b5050674563918244f4000091500490565b818102907fffffffffffffffffffffffffffffffffffffffffffffffffffffffffffffffff838209908280831092039180830392836753444835ec5800001115610d8f57146130e2577fe443b2b21e9cff65e4b451084973c5fa4af5e8c7892d99d195d26930a8eb0223936753444835ec580000910990828211900360ed1b910360131c170290565b50506753444835ec58000091500490565b91818302917fffffffffffffffffffffffffffffffffffffffffffffffffffffffffffffffff81850993838086109503948086039586851115610d8f571461318a579082910981805f03168092046002816003021880820260020302808202600203028082026002030280820260020302808202600203028091026002030293600183805f03040190848311900302920304170290565b505091500490565b9061319c90613689565b60038101809111611d9b5773ffffffffffffffffffffffffffffffffffffffff91602460209260405194859384927f1e2eaeaf0000000000000000000000000000000000000000000000000000000084526004840152165afa8015611689575f90613219575b6fffffffffffffffffffffffffffffffff91501690565b506020813d602011613253575b81613233602093836123b7565b81010312610d8f576fffffffffffffffffffffffffffffffff9051613202565b3d9150613226565b91908203918211611d9b57565b9290935f905f916fffffffffffffffffffffffffffffffff871693841596878015613681575b801561364c575b61363c5773ffffffffffffffffffffffffffffffffffffffff16956fffffffffffffffffffffffffffffffff1691821561357d57506fffffffffffffffffffffffffffffffff169283156134fa575061331961330e613301846132fb816132fb8b612b65565b96612bf6565b61331361330e8288612bf6565b6136af565b95612ca5565b927f7fffffffffffffffffffffffffffffffffffffffffffffffffffffffffffffff84168403611d9b57670de0b6b3a7640000830292808404670de0b6b3a76400001490151715611d9b57670de0b6b3a7640000850292858404670de0b6b3a764000014881715611d9b576133ad613422946133b29273ffffffffffffffffffffffffffffffffffffffff9760011b6130f3565b613722565b818310156133c08385612584565b9181156134e6576133da906133d5858761325b565b612ca5565b925b6133f06133e98685612ca5565b9185612ca5565b91156134aa5761340b92939161340591612584565b92612584565b905b81156134a35761341d9250612bf6565b612d3f565b1692828410613487577bffffffffffffffffffffffffffffffff0000000000000000000000005f9560601b169182046c01000000000000000000000000141715611d9b578161347e84613478613484958261325b565b926129cb565b916130f3565b92565b506134a09194935061349a835f9661325b565b906129cb565b91565b5050612d3f565b90808211156134dd576134bc9161325b565b91808211156134d4576134ce9161325b565b9061340d565b505060016134ce565b5060011c6134bc565b6134f4906133d5868661325b565b926133dc565b97955084965061354a925061330e91506135348461352e8773ffffffffffffffffffffffffffffffffffffffff97986129cb565b92612a45565b80821115613574576135459161325b565b612afe565b169283811161355c575b50505f929190565b61356c9294508361349a9161325b565b915f80613554565b5060011c612afe565b96935073ffffffffffffffffffffffffffffffffffffffff92506135cf915061354561330e916135c9876fffffffffffffffffffffffffffffffff6135c28b806129cb565b9316612a45565b90612584565b16948386116135e3575b50505050915f9190565b7bffffffffffffffffffffffffffffffff000000000000000000000000919293945060601b169182046c01000000000000000000000000141715611d9b578161347e84613478613633958261325b565b5f8080806135d9565b9750505050505050505f915f9190565b506fffffffffffffffffffffffffffffffff871615801561329557506fffffffffffffffffffffffffffffffff821615613295565b50831561328e565b6040516020810191825260066040820152604081526136a96060826123b7565b51902090565b90811561371d5760018201808311611d9b5760011c825b8382106136d1575050565b9092508280156136f057806136e7918304612584565b60011c906136c6565b7f4e487b71000000000000000000000000000000000000000000000000000000005f52601260045260245ffd5b5f9150565b8015613827575f905b670de0b6b3a764000081116137d1575b670de0b6b3a7640000818101809111611d9b576135c9826137a561379e826137986137918261378b6137848261377e613777826137ab9f612df1565b809d612584565b9b612e8b565b809a612584565b98612f25565b8097612584565b95612fbf565b8094612584565b92613059565b905f905b8082106137bb57505090565b90916137c981600192612ca5565b9201906137af565b60018101809111611d9b5760011c907fffffffffffffffffffffffffffffffffffffffffffffffffffffffffffffffff8114611d9b5760010190603c82111561372b575050670de0b6b3a7640000603c9061373b565b50670de0b6b3a76400009056fea264697066735822122099fcfc8192da3efdb4eaba1880153bef8277f917450b6c34d982afd6970a27ce64736f6c634300081a0033","linkReferences":{}},"methodIdentifiers":{"LP_REBATE_BPS()":"cd52edad","MAX_ORDER_DELAY()":"32cfb815","MIN_ORDER_DELAY()":"71aedf72","afterAddLiquidity(address,(address,address,uint24,int24,address),(int24,int24,int256,bytes32),int256,int256,bytes)":"9f063efc","afterDonate(address,(address,address,uint24,int24,address),uint256,uint256,bytes)":"e1b4af69","afterInitialize(address,(address,address,uint24,int24,address),uint160,int24)":"6fe7e6eb","afterRemoveLiquidity(address,(address,address,uint24,int24,address),(int24,int24,int256,bytes32),int256,int256,bytes)":"6c2bbe7e","afterSwap(address,(address,address,uint24,int24,address),(bool,int256,uint160),int256,bytes)":"b47b2fb1","beforeAddLiquidity(address,(address,address,uint24,int24,address),(int24,int24,int256,bytes32),bytes)":"259982e5","beforeDonate(address,(address,address,uint24,int24,address),uint256,uint256,bytes)":"b6a8b0fa","beforeInitialize(address,(address,address,uint24,int24,address),uint160)":"dc98354e","beforeRemoveLiquidity(address,(address,address,uint24,int24,address),(int24,int24,int256,bytes32),bytes)":"21d0ee70","beforeSwap(address,(address,address,uint24,int24,address),(bool,int256,uint160),bytes)":"575e24b4","cancelOrder(bytes32,bytes32)":"a47d9d33","commitOrder(bytes32,bytes32,uint64)":"4d767e69","distributeLPRebate(bytes32)":"50f81c52","getCommitment(bytes32,bytes32)":"c19cc87a","lpRebateAccrued(bytes32)":"437b0e9a","pendingSells(bytes32)":"1b2ad62a","poolManager()":"dc4c90d3","reactiveDistributeRebate(bytes32)":"d088a773","revealOrder(bytes32,bytes32,uint128,bool,bytes32,uint256[2],uint256[2][2],uint256[2])":"b6c3b5f8","settlement()":"51160630","unlockCallback(bytes)":"91dd7346","verifier()":"2b7ac3f3"},"id":75}